:020000040800F2
:1000000078050020490500087505000877050008F7
:100010007B0500087F05000883050008000000003C
:1000200000000000000000000000000009020008BD
:100030008705000800000000AD0200080D0300085D
:1000400063050008630500086305000863050008F0
:1000500063050008630500088905000863050008BA
:10006000630500086305000863050008A136000861
:1000700063050008630500086305000863050008C0
:1000800063050008630500086305000863050008B0
:1000900063050008630500086305000863050008A0
:1000A0006305000863050008630500086305000890
:1000B0006305000863050008630500086305000880
:1000C0006305000863050008630500086305000870
:1000D0006305000863050008630500086305000860
:1000E0006305000863050008630500086305000850
:1000F00063050008630500086305000899360008D9
:10010000630500086305000863050008E936000878
:10011000630500086305000863050008630500081F
:10012000630500086305000863050008630500080F
:1001300063050008630500086305000863050008FF
:1001400063050008630500086305000863050008EF
:1001500063050008630500086305000863050008DF
:1001600063050008630500086305000863050008CF
:1001700063050008630500086305000863050008BF
:100180006305000863050008DFF814D003F0CAFA1D
:100190000021024803F082FBFEE700001047000840
:1001A0007805002080F309887047684680F3098845
:1001B00004480078C00714BF0220032080F314888D
:1001C00070470000D8460008DFF818C0EFF3058339
:1001D0001B0618BF6047EFF31483DB0708BF6047B7
:1001E00000DF704799390008DFF818C0EFF3058386
:1001F0001B0618BF6047EFF31483DB0708BF604797
:1002000000DF7047753B0008EFF30980816911F842
:10021000021C002933D190E80F1010B5E047BDE86B
:100220001040EFF3098C8CE807001D4B93E80600A3
:10023000914208BF704781B11EF0100F06BF2CED30
:10024000108A0120002081F820002CE9F00FC1F86D
:1002500024C00CB403F05CFF0CBC1A60D2F824C0BC
:10026000BCE8F00F92F8200000281ABFBCEC108AFE
:100270006FF0120E6FF0020E8CF30988704710B504
:10028000084A1268914209D8074C54F8214090E876
:100290000F10A047EFF3098C8CE80F0010BD000091
:1002A00078000020483700084837000810B503F0F0
:1002B00007FEBDE81040174B93E80600914208BFC7
:1002C0007047EFF3098C1EF0100F06BF2CED108A5B
:1002D0000120002081F820002CE9F00FC1F824C093
:1002E0000CB403F015FF0CBC1A60D2F824C0BCE8B3
:1002F000F00F92F8200000281ABFBCEC108A6FF0B3
:10030000120E6FF0020E8CF30988704710B503F0DF
:10031000C5FFCEE778000020002100207E4A126849
:1003200042F480327C4B1A6000BF7B4A126802F4B0
:100330000030491C10B9B1F5A06FF6D1764A1268A9
:1003400012F4003F01D0012000E00020012845D137
:10035000714A4032126842F080526F4B40331A604B
:100360006E4A126842F480426C4B1A606A4A083244
:100370001268694B08331A601A46126842F4004248
:100380001A601A46126842F4A0521A60644A1B1F8F
:100390001A601A1F126842F080721B1F1A6000BF99
:1003A0005D4A126812F0007FFAD040F205625D4BA0
:1003B0001A60594A0832126822F00302564B083379
:1003C0001A601A46126842F002021A6000BF524ACE
:1003D0000832126802F00C02082AF8D14E4A08329C
:1003E000126822F400024C4B08331A604E4A4A4B02
:1003F00084331A60484A126842F08062464B1A60A1
:1004000000BF454A126812F0006FFAD0704710B56D
:100410004648006840F47000444908603E4800685F
:1004200040F001003C49086000203B490831086069
:10043000394800683E490840374908603D48091D71
:100440000860081F006820F48020091F0860002051
:1004500031490C310860FFF75FFF4FF0006033490E
:100460008039086010BD30B5002000220223844688
:100470000221294C0834246804F00C0020B104281F
:1004800006D0082836D107E02B4C2C4D2C6035E0E7
:100490002B4C2A4D2C6031E01F4C241D2468C4F3E2
:1004A000805C1D4C241D246804F03F01BCF1000F4A
:1004B0000AD0234CB4FBF1F4174D2D1D2D68C5F364
:1004C000881504FB05F209E01B4CB4FBF1F4124D56
:1004D0002D1D2D68C5F3881504FB05F20E4C241D57
:1004E0002468C4F30144641C6300B2FBF3F4134DAD
:1004F0002C6003E0104C114D2C6000BF00BF064C77
:1005000008342468C4F303140E4D285D0B4C246892
:10051000C4400A4D2C6030BD0038024000700040DD
:1005200008544007003C02408040003088ED00E065
:10053000FFFFF6FE103000240024F400000000202D
:1005400000127A0004000020064880470648004751
:10055000FEE7FEE7FEE7FEE7FEE7FEE7FEE7FEE773
:10056000FEE7FEE70F0400088901000800BFFEE770
:1005700000BFFEE7704700BFFEE700BFFEE700BF19
:10058000FEE700BFFEE770477047000010B5044665
:10059000022002F055FA22464621042002F040FED5
:1005A000002010BD10B54AF64440FFF7EFFF2021B0
:1005B000684802F010FF002010BD0EB50121102088
:1005C00001F0FCF8684601F0E4FCFF2001900020F7
:1005D000ADF80000ADF80800ADF8020069465E48CD
:1005E00001F0A3FC20215C4802F0E0F901215A4807
:1005F00001F024FD0EBD00B58FB0042057490860FE
:1006000000204860C860102000F02DF9544800F028
:1006100017FA4FF060600090524801904D480290E8
:100620004020039020200490002005904FF480602B
:100630000690400007908000089040110990400209
:100640000A9000200B9001200C9000200D900E903D
:100650006946434800F096FA0121414800F0CCFA7F
:100660000121102000F01CF90121102000F090F968
:100670000FB000BD00B58FB00420384908600020DD
:100680004860C86000F0EFF83548183000F0D8F93D
:100690004FF0606000903348001F01903248029094
:1006A000062004900020079008904020039000202E
:1006B00005904FF4806006908010099040020A90E7
:1006C00000200B9001200C9000200D900E906946A8
:1006D0002348183000F056FA01212148183000F064
:1006E0008BFA0121002000F0DBF80121002000F04E
:1006F0004FF90FB000BD10B50420184908608020E4
:1007000048604FF4106088600020C860102000F03E
:10071000AAF80121102000F0C3F84FF480710020E6
:1007200000F013F910BD10B504200C4908604020FA
:1007300048604FF4206088600020C86000F093F8A3
:100740000121002000F0ACF847F6F071042000F021
:10075000F5F810BD20470008001000409000002070
:100760008860024014740040604700083349014328
:10077000334A1160704770B5002100230F22C478FE
:1007800024B32F4C246804F4E064C4F5E064C4F39B
:100790000721C1F10404E3B20A4144789C40E1B26C
:1007A0008478144021430C07210E264C05786155AE
:1007B000047804F01F050124AC4005786D114FF05A
:1007C000E02606EB8505C5F8004109E0047804F051
:1007D0001F050124AC401C4D0678761145F82640D3
:1007E00070BD1A4A0A400243154B1B1F1A6070471E
:1007F00039B1134A121D12680243114B1B1D1A60B6
:1008000006E00F4A121D126882430D4B1B1D1A6031
:100810007047042808D14FF0E021096941F0040134
:100820004FF0E022116107E04FF0E021096921F06B
:1008300004014FF0E0221161704700000000FA054A
:100840000CED00E000E400E080E100E080FFFF1F2D
:1008500010B50121480701F016F800214FF00050B3
:1008600001F011F810BD30B500220023734C22684E
:1008700040F6FE748440A243D1E900452C438D68C4
:100880002C43CD6844EA050303FA00F422436B4C81
:10089000226030BD0021016041608160C16070470D
:1008A00039B1664A1268012383401A43634B1A60C8
:1008B00006E0624A1268012383409A435F4B1A6044
:1008C000704710B551B15D4A121D12680409012329
:1008D000A3401A43594B1B1D1A6009E0574A121DC9
:1008E000126804090123A3409A43544B1B1D1A604C
:1008F00010BD40B15149091D096841F003014F4A3B
:10090000121D116007E04D49091D096821F003011E
:100910004A4A121D1160704710B53AB1474B1B6827
:1009200001FA00F42343454C236006E0434B1B6867
:1009300001FA00F4A343414C236010BD00223F4A5A
:1009400000F108031A441160704700223B4A00F18D
:1009500014031A441160704710B54FF0000C0023C7
:10096000082802D142EA012C01E042EA014C334B53
:1009700000F120042344C3F800C010BD014600224A
:100980002E4A2C2000EB91000244106880B2704780
:1009900041B12A4A12684FF4805383401A43274BCF
:1009A0001A6007E0254A12684FF4805383409A4347
:1009B000224B1A60704710B53AB1204B1B6801FA00
:1009C00000F423431D4C236006E01C4B1B6801FA16
:1009D00000F4A343194C236010BD10B5024600205B
:1009E000164B34331B6801FA02F4234201D0012074
:1009F00000E0002010BD01FA00F2104B34331A6001
:100A0000704730B50246002000230C4C246801FAE0
:100A100002F504EA0503094C3434246801FA02F5AE
:100A20002C4202D00BB1012000E0002030BD01FAC1
:100A300000F2024B34331A6070470000007400402B
:100A4000016821F0010101600021016041608160C5
:100A5000C160016121214161DD49884204D13D210C
:100A6000DB4A103A91608CE0D9491831884205D1AF
:100A70004FF47461D64A103A916082E0D449303123
:100A8000884205D14FF47411D14A103A916078E050
:100A9000CF494831884205D14FF07461CC4A103AB1
:100AA00091606EE0CA496031884204D1C949C84AA0
:100AB000103AD16065E0C6497831884204D1C64910
:100AC000C34A103AD1605CE0C1499031884204D1F8
:100AD000C249BF4A103AD16053E0BD49A8318842AB
:100AE00005D14FF03D51BA4A103AD16049E0BC49B6
:100AF000884204D13D21BA4A083A116041E0B84920
:100B00001831884205D14FF47461B54A083A116032
:100B100037E0B3493031884205D14FF47411B04AFF
:100B2000083A11602DE0AE494831884205D14FF0B6
:100B30007461AB4A083A116023E0A94960318842E8
:100B400004D1A449A64A121F11601AE0A4497831C1
:100B5000884204D1A049A24A121F116011E0A049A5
:100B60009031884204D19D499D4A121F116008E0CE
:100B70009B49A831884204D14FF03D51984A121F39
:100B80001160704710B500220268964B1A40CC687D
:100B90000B6823434C6923438C692343CC6923436B
:100BA0000C6A23434C6A23438C6A23434C6B2343D4
:100BB0008C6B23431A430260426922F00702D1E999
:100BC0000B3423431A4342610B6943604B688360D3
:100BD0008B68C36010BD0021016041608160C1600D
:100BE000016141618161C161016241628162C162F1
:100BF000016341638163704721B1026842F00102E1
:100C0000026003E0026822F001020260704721B135
:100C1000026842F40042026003E0026822F40042EB
:100C20000260704721B1026842F02002026003E0D6
:100C3000026822F02002026070474160704701465E
:100C4000486880B2704722B1036843F40023036010
:100C500003E0036823F4002303600161704721B1BE
:100C6000026842F48022026003E0026822F48022DB
:100C7000026070470AB1016100E0C160704701463F
:100C800000200A6812F4002F01D0012000E00020AB
:100C90007047014600200A6812F0010F01D00120C0
:100CA00000E000207047014600204A6902F0380049
:100CB000704710B503460A4600208446484CA342BC
:100CC00002D24349103901E04549103912F0005F62
:100CD00002D0D1F804C001E0D1F800C0424C0CEAC7
:100CE000040C1CEA020F01D0012000E0002010BD1E
:100CF00002463B4B9A4202D23548103801E0384850
:100D0000103811F0005F03D0374B0B40C36002E096
:100D1000354B0B408360704710B511F0800F09D040
:100D200022B1436943F08003436103E0436923F048
:100D30008003436180290BD02AB1036801F01E04AF
:100D40002343036004E0036801F01E04A34303602F
:100D500010BD30B50246002000248446204DAA4232
:100D600002D21B4B103B01E01D4B103B1F4D294293
:100D700006D01E2505EAD124156805EA040C02E018
:100D8000556905F0800C11F0005F01D05C6800E04F
:100D90001C68154D2C400C4204D0BCF1000F01D052
:100DA000012000E0002030BD02460D4B9A4202D2E5
:100DB0000748103801E00A48103811F0005F03D0EE
:100DC000094B0B40C36002E0074B0B408360704748
:100DD000106002403D000020400F002000003D2038
:100DE000106402403F801CF07D0F7D0F3C0F3C0FD4
:100DF00010B504468848844208D10121084600F015
:100E0000FFFC0021012000F0FBFC5EE083488442EF
:100E100008D10121022000F0F3FC0021022000F0A3
:100E2000EFFC52E07E48844208D10121042000F00A
:100E3000E7FC0021042000F0E3FC46E0794884420E
:100E400008D10121082000F0DBFC0021082000F07F
:100E5000D7FC3AE07448844208D10121102000F008
:100E6000CFFC0021102000F0CBFC2EE06F48844224
:100E700008D10121202000F0C3FC0021202000F037
:100E8000BFFC22E06A48844208D10121402000F0E2
:100E9000B7FC0021402000F0B3FC16E06548844216
:100EA00008D10121802000F0ABFC0021802000F05F
:100EB000A7FC0AE06048844207D10121801500F0B8
:100EC0009FFC0021A01500F09BFC10BD70B50A46E8
:100ED000002100238C4600BF3DE0012404FA01F309
:100EE000146804EA030C9C4534D104684E000325C1
:100EF000B540AC43046014794D00AC4005682C4308
:100F000004601479012C02D01479022C16D1846863
:100F10004E000325B540AC43846054794D00AC408D
:100F200085682C438460446801258D40AC4344604F
:100F3000446895798D40ADB22C434460C4684E003E
:100F40000325B540AC43C460D4794D00AC40C568BE
:100F50002C43C460491C1029BFD370BD4FF6FF71EC
:100F600001600021017141718171C17170474FF4BD
:100F700080320A43C261C161C261C269C2697047FD
:100F80000246002013690B4201D0012000E000203E
:100F900070470146086980B27047024600205369D5
:100FA0000B4201D0012000E0002070470146486953
:100FB00080B2704701837047418370470AB1018353
:100FC00000E0418370474161704742694A40426195
:100FD000704770B500239C464C07E40E02FA04F3F8
:100FE000CD1000F1200454F825404D07EE0E0F25DA
:100FF000B540AC43CE1000F1200545F82640CD1099
:1010000000F1200454F8254044EA030CCD1000F10F
:10101000200444F825C070BD0000024000040240D6
:1010200000080240000C0240001002400014024080
:1010300000180240001C02400020024010B5044687
:10104000FB48844209D10121480500F01CFC002125
:101050004FF4001000F017FC18E0F648844209D164
:101060000121880500F00FFC00214FF4800000F002
:101070000AFC0BE0F048844208D10121C80500F0C9
:1010800002FC00214FF4000000F0FDFB10BD2DE933
:10109000FF4704460D460026B1460427DFF89C832F
:1010A000A6884FF6C0700640684600F0C3FADDF827
:1010B0000880E348B8FBF0F01FFA80F946EA090619
:1010C000A68020884FF6FE71084020800026DD496A
:1010D000286888420CD828684000B8FBF0F087B236
:1010E000042F00DA04273E4309F10100208427E0A1
:1010F000E888A0F53F41FF3906D1286800EB4000A1
:10110000B8FBF0F087B209E0286800EBC00101EB02
:101110000010B8FBF0F087B247F480473805000DA7
:1011200001D147F0010747F4004006434FF49670A1
:1011300009FB00F04FF47A7190FBF1F0401C208421
:10114000A683208840F00100208026884FF6F530E5
:101150000640A8886989084306432680A88929890A
:1011600008432081BDE8FF8741F2883101600021FA
:1011700081804BF6FF71C1800021018141814FF4D4
:1011800080418181704721B1028842F001020280D2
:1011900004E002884FF6FE731A400280704721B1C6
:1011A000028842F48072028004E002884FF6FF63F6
:1011B0001A400280704721B1028842F40072028016
:1011C00004E002884FF6FF531A400280704712B1C4
:1011D00041F0010101E001F0FE010182704721B1FF
:1011E000028842F48062028004E002884FF6FF33F6
:1011F0001A40028070470A46002181894FF6017328
:10120000194002F0FE0319438181704721B18289A0
:1012100042F00102828104E082894FF6FE731A4097
:101220008281704721B1028842F04002028004E0CE
:1012300002884FF6BF731A400280704721B10288BE
:1012400042F40042028003E00288C2F30E020280F0
:10125000704721B9028842F08002028004E00288CF
:101260004FF67F731A4002807047B1F5804F05D06A
:10127000828B4BF6FF731A40828303E0828B42F429
:10128000804282837047B1F5006F04D1028842F436
:101290000062028004E002884FF2FF731A4002806D
:1012A0007047B1F5005F04D1028842F40052028019
:1012B00004E002884DF6FF731A400280704721B1A6
:1012C000028842F01002028004E002884FF6EF73B9
:1012D0001A4002807047018270470146088AC0B2F6
:1012E000704721B1028842F48052028004E00288F3
:1012F0004EF6FF731A4002807047B1F5006F04D1BB
:10130000028842F40062028004E002884FF2FF7318
:101310001A400280704721B1028842F02002028008
:1013200004E002884FF6DF731A40028070470146DE
:10133000088B0012704721B1828842F400628280DB
:1013400004E082884FF2FF731A408280704721B117
:10135000828842F48052828004E082884EF6FF73D5
:101360001A40828070470246002313460B441888B7
:10137000704710B51AB183880B43838004E08388DB
:10138000CC43A4B22340838010BD30B50246002474
:10139000A44600230020B2F814C0138B1B044CEAAF
:1013A000030525F07F4404EA01058D4201D10120A7
:1013B00000E0002030BD10B50146002000230022CF
:1013C0008B8A0A8B120443EA020424F07F4010BD8A
:1013D00010B503460020844600221A464FEA117CCD
:1013E00021F07F41BCF1000F01D0143201E0090C63
:1013F000183214680C4201D0012000E0002010BD1A
:10140000002221F07F42D3438382704730B50246E9
:1014100000200023948801F0E06504EA154321F0E0
:101420007F41948A0C420FD073B101200DE000007F
:101430000054004000580040005C004000127A0058
:1014400040420F00A0860100002030BD002221F0A4
:101450007F42D34383827047FA48006840F001001E
:10146000F84908600020F74908310860F54800682D
:10147000F5490840F3490860F448091D0860081F51
:10148000006820F48020091F08600020ED490C311D
:10149000086070470021EB4A921C117011460870D9
:1014A000704710B501460022002300204A11012A8E
:1014B00002D1E44C236808E0022A03D1E14C7034E5
:1014C000236802E0DF4C7434236801F01F0201241A
:1014D00094401C4201D0012000E0002010BD70B5F6
:1014E00000240025002600BF3120FFF7DAFF064662
:1014F000641CB4F5A06F01D0002EF5D03120FFF7A9
:10150000D0FF08B1012500E00025284670BD014646
:101510000020CC4A106820F0F80040EAC1001060BA
:101520007047CB49086070470021C64A703211707D
:101530001170012802D004280AD104E00121C14A17
:101540007032117005E00521BE4A7032117000E062
:1015500000BF00BF7047BF490860704730B5DDF875
:101560000CC041EA82140125C5EB530544EA054449
:10157000044344EA0C64B34D2D1D2C6030BDB449C6
:1015800008667047820142EA0172AE4B84331A60EA
:101590007047AF4988667047AD49C86470470246D6
:1015A0000020A84B0833186820F0EC6042EA0103E1
:1015B0001843A44B08331860704702460020A14B23
:1015C0000833186820F0784042EA010318439D4B25
:1015D000083318607047014600209A4A08321068A4
:1015E00020F00300084310607047964808300068F8
:1015F00000F00C00704701460020924A0832106843
:1016000020F0F000084310607047014600208D4A2A
:101610000832106820F4E05008431060704701461B
:101620000020884A0832106820F4604040EAC10077
:1016300010607047F0B500210022002402258C467E
:101640000223804E0836366806F00C0121B10429C9
:1016500005D0082933D105E07F4E066032E07F4E89
:1016600006602FE0774E361D3668C6F3805C754EF7
:10167000361D366806F03F03BCF1000F0AD0774EE6
:10168000B6FBF3F66F4F3F1D3F68C7F3881706FBA5
:1016900007F409E0704EB6FBF3F66A4F3F1D3F6852
:1016A000C7F3881706FB07F4664E361D3668C6F387
:1016B0000146761C7500B4FBF5F6066002E0664E46
:1016C000066000BF00BF5F4E0836366806F0F001C6
:1016D0000909634E725C0668D6404660594E08366A
:1016E000366806F4E051890A5D4E725C4668D64061
:1016F0008660544E0836366806F46041490B584EF1
:10170000725C4668D640C660F0BD002100F44072AD
:10171000B2F5407F0AD14B4A0832116821F4F81122
:10172000504A02401143474A08321160454A70321C
:101730001268C0F30B031A43424B70331A607047B0
:10174000444944390860704742494039086070474D
:1017500045490860704739B13A4A3032126802434D
:10176000384B30331A6006E0364A30321268824312
:10177000344B30331A60704739B1324A3432126810
:101780000243304B34331A6006E02E4A343212687A
:1017900082432C4B34331A60704739B1294A3832AE
:1017A00012680243274B38331A6006E0254A383264
:1017B00012688243234B38331A60704739B1214A8B
:1017C0004032126802431F4B40331A6006E01D4A44
:1017D0004032126882431B4B40331A60704739B164
:1017E000184A443212680243164B44331A6006E02A
:1017F000144A443212688243124B44331A607047D1
:1018000039B1104A1032126802430E4B10331A607D
:1018100006E00C4A1032126882430A4B10331A60F9
:10182000704739B1074A143212680243054B14332A
:101830001A6006E0034A143212688243014B1433E3
:101840001A60704700380240FFFFF6FE1030002497
:1018500000004742800E47420024F40000127A0044
:1018600024000020FFFCFF0F5C01474229B1574ACA
:1018700012680243554B1A6004E0544A12688243CE
:10188000524B1A60704739B1504A0832126802430D
:101890004E4B08331A6006E04C4A08321268824305
:1018A0004A4B08331A60704739B1484A0C32126803
:1018B0000243464B0C331A6006E0444A0C3212686D
:1018C0008243424B0C331A60704739B13F4A383279
:1018D000126802433D4B38331A6006E03B4A383207
:1018E00012688243394B38331A60704739B1374A2E
:1018F0003C3212680243354B3C331A6006E0334AEF
:101900003C3212688243314B3C331A60704739B124
:101910002E4A4032126802432C4B40331A6006E0D4
:101920002A4A403212688243284B40331A6070477B
:1019300039B1264A483212680243244B48331A60B0
:1019400006E0224A483212688243204B48331A602C
:10195000704739B11D4A4C32126802431B4B4C335D
:101960001A6006E0194A4C3212688243174B4C3316
:101970001A60704739B1154A0B3A12780243134B7B
:101980000B3B1A7008E0114A0B3A1278C343DBB2E2
:101990001A400E4B0B3B1A7070470C485C300068C5
:1019A00040F0807009495C310860704701460020B2
:1019B000064A0C3A12680A4201D0012000E00020D9
:1019C000704702490A390870704700001838024011
:1019D00010B50446F948844208D101218014FFF76C
:1019E00063FF0021A014FFF75FFF16E0F448844274
:1019F00008D101210014FFF746FF00212014FFF752
:101A000042FF0AE0EF48844207D10121C013FFF7EB
:101A10003AFF0021E013FFF736FF10BD10B500229A
:101A2000028802F441520B884C8823438C8823435C
:101A3000CC8823430C8923434C8923438C8923433B
:101A4000CC8923431A430280838B4FF2FF742340D7
:101A500083830B8A038210BD2DE9F04F00250223FA
:101A60000024012700220026944690469146B0F8B3
:101A70001CA04FF2400B0AEA0B0AA0F81CA04FF082
:101A8000020AA0F820A0858BD1F808A0BAF1020FB5
:101A900001D100BF67E0B1F804A0BAF1000F01D195
:101AA000012700E00227DFF820A3DAF800A01AF4EB
:101AB000000F09D0DFF810A3DAF800A02AF4000A1A
:101AC000DFF804B3CBF800A0DFF8FCA20AF17C0A2F
:101AD000DAF800A0CAF38818DFF8ECA20AF17C0A51
:101AE000DAF800A0CAF30279DFF8DCA2AAF1040A4E
:101AF000DAF800A00AF03F0CDFF8D0A2BAFBFCFA3B
:101B00000AFB08FABAFBF9F6B1F806A0BAF5007FAD
:101B10000ED14FEA162A0AEB8A0A4FEA4A0AD1F88E
:101B200008B0BAFBFBFA0AF1050A1FFA8AF20FE0C5
:101B30004FEA471AB6FBFAFA0AEB8A0A4FEA4A0A50
:101B4000D1F808B0BAFBFBFA0AF1050A1FFA8AF2CB
:101B50004FF00A0AB2FBFAF202F00104A2EB040A07
:101B6000CAF34F032402022B01DBFF2B01DD02230A
:101B70000024B1F806A04AEA040A4AEA030AA0F8D7
:101B800020A0B1F804A0B1F80CB04AEA0B0AB1F8F1
:101B900002B04AEA0B0AB1F800B04AEA0B0A4AF46A
:101BA000006A4AEA05058583BDE8F08F00210180BF
:101BB00041808180C180018141818181C181072172
:101BC000018270470021018041808180C180022113
:101BD000816000218181704721B1028842F040027A
:101BE000028004E002884FF6BF731A4002807047FB
:101BF00021B1828B42F48062828304E0828B4FF6B3
:101C0000FF331A408283704702884FF2FF731A40F5
:101C1000028002880A4302807047B1F5804F04D1E8
:101C2000028842F48042028004E002884BF6FF738F
:101C30001A4002807047A1F57E42FF3A04D0028824
:101C400042F48072028004E002884FF6FF631A407B
:101C50000280704721B1828842F00402828004E051
:101C600082884FF6FB731A408280704721B18288C8
:101C700042F01002828004E082884FF6EF731A402F
:101C80008280704730B500220023848B4FF24005DC
:101C90002C40848302240484828B0C88B4F5007F5A
:101CA00001D00C8814B94FF4807308E00C88B4F5A7
:101CB000407F03D00C88B4F5807F00D100238C884E
:101CC0008D892C434D882C431C4344F400642243EB
:101CD000828330BD0146888970478181704721B178
:101CE000028842F40052028004E002884DF6FF733D
:101CF0001A4002807047018841F48051018070478A
:101D000002460020012901D0108B00E0908A704724
:101D10000146088A704710B51AB183880B43838047
:101D200004E08388CC43A4B22340838010BD30B547
:101D30004FF0000C00234FEA211C012404FA0CF49C
:101D4000A3B21AB184881C43848004E08488DD43F4
:101D5000ADB22C40848030BD0246002013890B4276
:101D600001D0012000E000207047CA430281704783
:101D700070B50246002000240023844601F00F06BF
:101D80000125B540ACB20B1101259D40ABB2958841
:101D900005EA030C1589254204D0BCF1000F01D0DF
:101DA000012000E0002070BD10B5002201F00F04FA
:101DB0000123A3409AB2D343038110BD00300140F8
:101DC00000380040003C00400838024000127A0011
:101DD00010B50446FE48844208D101210846FFF7A9
:101DE00063FD00210120FFF75FFD9DE0B4F1804F0E
:101DF00008D101210846FFF746FD00210120FFF729
:101E000042FD91E0F348844208D101210220FFF70E
:101E10003AFD00210220FFF736FD85E0EE488442BE
:101E200008D101210420FFF72EFD00210420FFF737
:101E30002AFD79E0E948844208D101210820FFF712
:101E400022FD00210820FFF71EFD6DE0E4488442DA
:101E500008D101211020FFF716FD00211020FFF707
:101E600012FD61E0DF48844208D101212020FFF704
:101E70000AFD00212020FFF706FD55E0DA488442E4
:101E800008D101210220FFF70FFD00210220FFF7FA
:101E90000BFD49E0D548844209D101210804FFF730
:101EA00003FD00214FF48030FFF7FEFC3CE0D048FA
:101EB000844209D101214804FFF7F6FC00214FF4C8
:101EC0000030FFF7F1FC2FE0CA48844209D101211C
:101ED0008804FFF7E9FC00214FF48020FFF7E4FCC1
:101EE00022E0C548844208D101214020FFF7CBFC05
:101EF00000214020FFF7C7FC16E0C048844208D10B
:101F000001218020FFF7BFFC00218020FFF7BBFCF0
:101F10000AE0BB48844207D101218015FFF7B3FCDA
:101F20000021A015FFF7AFFC10BD00220288A84BCE
:101F300098420ED0AC4B98420BD0B0F1804F08D0F5
:101F4000A44B984205D0A44B984202D0A34B984290
:101F500004D14FF68F731A404B881A43A04B984216
:101F600007D0A04B984204D04FF6FF431A400B898C
:101F70001A4302804B68C3620B880385944B9842D6
:101F800002D0994B984201D18B7A03860123838238
:101F900070474FF0FF314160002101800181418095
:101FA000817270470185828270470A46002101884C
:101FB0004FF68F731940114301807047416270479B
:101FC000C16270470146486A70470146088D7047F4
:101FD00021B1028842F00202028004E002884FF63A
:101FE000FD731A400280704721B1028842F004025A
:101FF000028004E002884FF6FB731A4002807047AB
:1020000021B1028842F08002028004E002884FF68B
:102010007F731A400280704702884FF6F7731A40A8
:10202000028002880A430280704702884FF6FF430D
:102030001A40028002880A430280704721B1028858
:1020400042F00102028004E002884FF6FE731A405B
:102050000280704730B54FF0000C00220023048C42
:102060004FF6FE752C400484028C8388B0F818C0AB
:102070004FF68F740CEA040CAC1E0CEA040C0C88AE
:1020800044EA0C0C6C1E22408C8922434C8822436B
:102090004F4CA04202D0544CA04213D14FF6F774DB
:1020A0002240CC8922434FF6FB7422408C88224385
:1020B0004FF6FF6423404FF6FF5423400C8A23431E
:1020C0004C8A23438380A0F818C08C684463028440
:1020D00030BD30B54FF0000C00220023048C4FF6C9
:1020E000EF752C400484028C8388B0F818C048F641
:1020F000FF740CEA040C4FF6FF440CEA040C0C8845
:1021000024064CEA144C4FF6DF7422408C892405D7
:1021100042EA14424C88240542EA14422C4CA04264
:1021200002D0314CA0421BD14FF67F742240CC89A3
:10213000240542EA14424FF6BF7422408C882405DD
:1021400042EA14424FF6FF3423404FF2FF7423401B
:102150000C8AA40443EA14434C8AA40443EA1443BB
:102160008380A0F818C08C688463028430BD30B5C9
:102170004FF0000C00220023048C4FF6FF652C402A
:102180000484028C8388B0F81CC04FF68F740CEA6C
:10219000040C4FF6FC740CEA040C0C8844EA0C0C9A
:1021A0004FF6FF5422408C89240642EA14424C88A0
:1021B000240642EA1442064CA04202D00A4CA04235
:1021C00037D14FF2FF742240CC8924061AE0000078
:1021D000000001400004004000080040000C0040E6
:1021E0000010004000140040000401400040014085
:1021F000004401400048014000180040001C00401D
:102200000020004042EA14424FF6FF3422408C88FE
:10221000240642EA14424EF6FF7423404DF6FF7442
:1022200023400C8A240543EA14434C8A240543EADC
:1022300014438380A0F81CC08C68C463028430BD42
:1022400030B5002200239446048C4EF6FF752C40D6
:102250000484038CB0F804C0828B48F6FF742240DB
:102260004FF6FF4422400C88240642EA14424DF601
:10227000FF7423408C89240743EA14434C882407C5
:1022800043EA1443FE4CA04202D0FE4CA04207D1C8
:102290004BF6FF740CEA040C0C8AA4054CEA144CAF
:1022A000A0F804C082838C680464038430BD0021DC
:1022B00001804180818081608181C1810182418270
:1022C000704730B503460020844618461830012474
:1022D0008C401FFA84FC1C8C6FEA0C05ADB22C40BC
:1022E0001C8409B108290AD100EB610004684FF68B
:1022F0008F752C4004600468144304600DE00C1FCB
:10230000A4B200EB6400046848F6FF752C4004603A
:102310000468150644EA1544046030BD4163704703
:1023200081637047C1637047016470470A460021AA
:10233000018B4FF68F7319401143018370470A4692
:102340000021018B48F6FF731940130641EA13413F
:10235000018370470A460021818B4FF68F73194025
:102360001143818370470A460021818B48F6FF7331
:102370001940130641EA1341818370470A46002140
:10238000018B4FF6F77319401143018370470A46DA
:102390000021018B4FF2FF731940130641EA1341EC
:1023A000018370470A460021818B4FF6F77319406D
:1023B0001143818370470A460021818B4FF2FF73DE
:1023C0001940130641EA1341818370470A460021F0
:1023D000018B4FF6FB7319401143018370470A4686
:1023E0000021018B4FF6FF331940130641EA1341D8
:1023F000018370470A460021818B4FF6FB73194019
:102400001143818370470A460021818B4FF6FF33C9
:102410001940130641EA1341818370470A4600219F
:10242000018B4FF67F7319401143018370470A46B1
:102430000021018BC1F30E01130641EA1341018310
:1024400070470A460021818B4FF67F731940114374
:10245000818370470A460021818BC1F30E01130668
:1024600041EA1341818370470A460021018C4FF6EF
:10247000FD7319401143018470470A460021018C05
:102480004FF6F77319401143018470470A46002143
:10249000018C4FF6DF731940130541EA13410184A3
:1024A00070470A460021018C4FF67F7319401305CF
:1024B00041EA1341018470470A460021018C4FF61E
:1024C000FF531940130641EA1341018470470A463D
:1024D0000021018C4FF2FF731940130641EA1341AA
:1024E000018470470A460021018C4DF6FF731940A4
:1024F000130741EA13410184704730B500230124DA
:102500008C40A3B2048CDD43ADB22C400484048C17
:1025100002FA01F5ADB22C43048430BD30B500237E
:1025200004248C40A3B2048CDD43ADB22C4004845F
:10253000048C02FA01F5ADB22C43048430BD828BC9
:102540004FF2FF331A408283828B0B0642EA13421A
:1025500082837047F0B50C461546002100228C4658
:10256000068C4EF6FF773E400684818B028C260750
:102570004FEA164C40F6FF4631402E0641EA16411E
:102580001E0741EA164145F6FF7632404CF480566C
:10259000324381830284F0BD828B4FF6F3731A407D
:1025A0008283828B0A4382837047F0B50C461546BE
:1025B000002100228C46068C4FF6FF673E400684C1
:1025C000818B028C26064FEA164C4FF60C76314072
:1025D0001E0545EA164631434FF2FF5632404CF491
:1025E0008076324381830284F0BD028B4FF2FF3349
:1025F0001A400283028B0B0642EA134202837047A1
:10260000F0B50C461546002100228C46068C4FF68C
:10261000EF773E400684018B028C26054FEA164C6C
:1026200040F6FF4631401E0741EA16412E0641EAB8
:1026300016414FF65F7632404CF01006324301836C
:102640000284F0BD028B4FF6F3731A400283028BB3
:102650000A430283704770B58C461446002100225D
:10266000058C4FF6FE7635400584018B028C4FF6C3
:102670000C7529401D0544EA1545294304E0000076
:1026800000000140000401404FF6F5752A404CF06F
:1026900001052A430183028470BD70B505460C46CE
:1026A000208850B92389A28861882846FFF7D3FF84
:1026B000E1882846FFF7C6FF25E0208804280AD1D4
:1026C0002389A28861882846FFF79AFFE188284677
:1026D000FFF78BFF17E0208808280AD12389A288FA
:1026E00061882846FFF761FFE1882846FFF754FF1D
:1026F00009E02389A28861882846FFF72BFFE1883B
:102700002846FFF71CFF70BD002101804180012198
:1027100081800021C180018170472DE9F04105468B
:102720000C4600260127608808B9022600E0002632
:10273000A088012801D1022700E001272088A0B944
:102740002389A28861882846FFF785FFE18828460B
:10275000FFF778FF23893A4631462846FFF750FFB6
:10276000E1882846FFF741FF13E02389A2886188AA
:102770002846FFF745FFE1882846FFF736FF238903
:102780003A4631462846FFF766FFE1882846FFF7BC
:1027900059FFBDE8F0810146486B70470146886BE0
:1027A00070470146C86B70470146086C70470A883D
:1027B0004B881A438B881A43CB881A430B891A43D8
:1027C0004B891A438B891A43A0F844207047002193
:1027D000018041808180C180018141818181704778
:1027E00031B1B0F8442042F40042A0F8442005E0A2
:1027F000B0F84420C2F30E02A0F84420704721B183
:10280000828842F00402828004E082884FF6FB73E3
:102810001A408280704721B1828842F00102828092
:1028200004E082884FF6FE731A408280704710B52C
:102830001AB183890B43838104E08389CC43A4B21A
:102840002340838110BD8182704702460020138A95
:102850000B4201D0012000E000207047CA430282F1
:10286000704710B50246002000238446148A04EA0B
:102870000103948904EA010C23B1BCF1000F01D0DB
:10288000012000E0002010BDCA430282704741EAE7
:102890000203A0F84830704710B51AB183890B4382
:1028A000838104E08389CC43A4B22340838110BD9B
:1028B00021B1828842F00802828004E082884FF6CB
:1028C000F7731A408280704701894FF6F872114001
:1028D000018170470A46002101894FF68F73194024
:1028E00011430181704730B504460D462946204604
:1028F000FFF7F0FF208940F00700208130BD2DE96F
:10290000F04104460D4616461F46602D06D13B4653
:10291000012231462046FFF773FE05E03B460122C7
:1029200031462046FFF797FE29462046FFF7D2FFA3
:10293000208940F007002081BDE8F08110B58C4669
:1029400000210189C9B21C0642EA144444EA0C047D
:102950002143018110BD2DE9F04105460E46174681
:102960009846002443463A4631462846FFF7E6FF9C
:102970002C894FF6F870044044F007044FF68F702E
:10298000044044F070042C81BDE8F081F0B50446A9
:102990000D4616461F463B46324629462046FFF75F
:1029A000CDFF208940F480402081F0BD82884FF621
:1029B0008F731A40828082880A438280704702891E
:1029C0004FF6F8731A40028102890A430281704768
:1029D00002894FF67F731A40028102890A430281FD
:1029E000704770B58C4614461D4600210022002316
:1029F0000189028B038C4FF6F876314041EA0C01D5
:102A00004FF6FC46324040F2011632434FF6DD7677
:102A100033402E0544EA1646334301810283038482
:102A200070BD21B1828842F08002828004E08288F9
:102A30004FF67F731A4082807047A0F8501070479D
:102A4000F74908600968012923D14905F54A116051
:102A5000F549F64A1160F649F64A11600021F64A36
:102A600011602F21F54A11604FF02051F44A116096
:102A70004FF01051F34A11604FF00151F24A1160CA
:102A80004FF00851F14A11604FF00451F04A1160C3
:102A900023E0022821D10105E24A1160E249A83968
:102AA000E24A1160EB49E34A11600021E24A1160F9
:102AB0000B21E24A1160E849E14A1160E649103908
:102AC000E04A1160E549E04A1160E3491839DF4AFC
:102AD0001160E249C91CDE4A11607047002070474E
:102AE000704700B587B00121DD48FEF734FE0121B3
:102AF0004807FEF763FE1020019003208DF80800C0
:102B000000208DF80B0001A9D648FEF7DFF9002060
:102B100003900490069003A9FDF7A5FE0121002073
:102B2000FDF7BEFE07B000BD08B5BD48006801282E
:102B300048D10121BB480068FEF70DFE0021BB48CB
:102B40000068FEF759F8B9480068FDF779FFBA4800
:102B50000068C5490860B748006848600020886080
:102B60004020C8604FF6FE700861002048614FF4B5
:102B7000806088614000C86180000862002048626F
:102B80004FF4003088620020C8620863486388639D
:102B9000A6480068FDF7F6FF01221021A34800684F
:102BA000FEF7BAF8A5480068C0B28DF80000002012
:102BB0008DF801008DF8020001208DF803006846B1
:102BC000FDF7D9FD96480068012806D101220221AF
:102BD00097480C38FFF79FF815E0FFF782FF0122B6
:102BE000712193480C38FFF7A2F833208DF80000CC
:102BF00000208DF801008DF8020001208DF80300FF
:102C00006846FDF7B8FD08BD10B588B0044601213F
:102C1000C803FEF7D3FD86480C38FEF7D9FE0694AC
:102C20000020ADF81200ADF81400ADF81C004FF410
:102C30000070ADF81000ADF8160004A97C480C38FF
:102C4000FEF70AFF7648006802280ED1012100072E
:102C5000FEF7B4FD00200090019003906946FDF757
:102C600002FE01210020FDF71BFE08B010BD00BFD1
:102C7000FEE770B5044600254FF496107B490860C6
:102C800007E07A490868411E784A116008B9FFF7E1
:102C9000EEFF4FF400317648FEF79AFB0028F0D1A2
:102CA00001217348FEF77BFA4FF480506F490860AA
:102CB00007E06E490868411E6C4A116008B9FFF7C9
:102CC000D6FF6C496A48FEF760FB0028F1D000226D
:102CD00094216748FEF77BFA4FF4805063490860FF
:102CE00007E062490868411E604A116008B9FFF7B1
:102CF000BEFF61495E48FEF748FB0028F1D021463F
:102D00005B48FEF7E8FA4FF480505849086007E046
:102D100056490868411E554A116008B9FFF7A7FFD8
:102D20004D491C395248FEF753FB0028F0D00121D1
:102D30004F48FEF734FA4FF480504C49086007E0E2
:102D40004A490868411E494A116008B9FFF78FFFD8
:102D500048494748FEF719FB0028F1D00122942189
:102D60004348FEF734FA4FF480504049086007E0CA
:102D70003E490868411E3D4A116008B9FFF777FFD8
:102D800035491E393A48FEF723FB0028F0D00021D0
:102D90003748FEF724FA36481830008801213448B5
:102DA000FEF709FA4FF480503049086007E02F49D8
:102DB0000868411E2D4A116008B9FFF758FF2649DF
:102DC00020312B48FEF704FB0028F0D02848FEF7FE
:102DD00084FA05464FF480502449086007E02349EF
:102DE0000868411E214A116008B9FFF740FF2048DA
:102DF000008810F4007FF2D101211D48FEF7EFF9A1
:102E00001E491B48FEF7FCFA284670BD70B5044603
:102E10000D4600264FF496101449086038E0000073
:102E20004400002048000020B86002404C00002010
:102E30000C3C0040500000205400002058000020AE
:102E40005C0000206000002064000020680000207A
:102E50006C0000200C740040200000100100801065
:102E60000100200000000240A00000203C000020E3
:102E7000005400400100030082000700000400101D
:102E8000FD490868411EFC4A116008B9FFF7EFFED2
:102E90004FF40031F948FEF79BFA0028F0D10121E8
:102EA000F648FEF77CF94FF48050F349086007E0DC
:102EB000F1490868411EF04A116008B9FFF7D7FED2
:102EC000EF49EE48FEF761FA0028F1D00022942184
:102ED000EA48FEF77CF94FF48050E749086007E0C4
:102EE000E5490868411EE44A116008B9FFF7BFFED2
:102EF000E449E248FEF749FA0028F1D02146DF48CC
:102F0000FEF7E9F94FF48050DB49086007E0DA4941
:102F10000868411ED84A116008B9FFF7A8FED949D0
:102F2000891ED648FEF731FA0028F0D02946D3484A
:102F3000FEF7D1F94FF49610CF49086007E0CE496B
:102F40000868411ECC4A116008B9FFF790FECE49CF
:102F5000CA48FEF73DFA0028F1D00121C748FEF724
:102F60002AF92046FFF785FEA84201D0012000E0A3
:102F700000200646304670BD70B504460025E62C9C
:102F80000EDDA4F1E700C1B22020FFF73FFF0544AA
:102F9000A4F1E700C1B22120FFF738FF05440DE09E
:102FA00004F11900C1B22020FFF730FF054404F1FD
:102FB0001900C1B22120FFF729FF0544284670BD42
:102FC0001FB501214805FEF7F9FBAC48FEF736F8BE
:102FD0000020ADF804004BF6FF70ADF8060033207A
:102FE000ADF808004FF48060ADF80A000001ADF8BC
:102FF0000C00A64800900121A048FEF7C4F86946DD
:103000009E48FEF744F81FBD00E0401E0028FCD19A
:10301000704710B5002210219D48FDF7CFFF44F600
:10302000FF70FFF7F1FF012210219948FDF7C6FF5D
:1030300010BD1CB501210820FEF78DFB102000906B
:1030400001208DF8040002208DF8050000208DF885
:1030500006008DF8070069468D48FDF737FF01210E
:103060000720FEF778FB4FF41070009002208DF8D7
:1030700004008DF8050001208DF8060000208DF871
:10308000070069468348FDF721FF04220621814895
:10309000FDF79FFF042209217E48FDF79AFF4FF4B8
:1030A000A050009002208DF804008DF8050000204B
:1030B0008DF806008DF8070069467748FDF706FF92
:1030C000062204217548FDF784FF06220A21724872
:1030D000FDF77FFF7248006802280BD01020009097
:1030E00069466E48FDF7F2FE06220C216A48FDF79C
:1030F00070FF0FE001210846FEF72DFB1020009025
:1031000003208DF8040000208DF80700694663480D
:10311000FDF7DCFE8020009002208DF804008DF881
:10312000050000208DF806008DF8070069465A4812
:10313000FDF7CCFE062207215748FDF74AFF1CBDCC
:103140002DE9F04107460D4616460024FFF771FFB2
:10315000FFF75FFFFFF734FF01210220FFF756FE64
:103160000444AF210420FFF751FE0444AF204D4931
:10317000087081210520FFF749FE04440421062040
:10318000FFF744FE04442846FFF7F6FE4448006873
:10319000022818D101210820FFF738FE044401213C
:1031A0000920FFF733FE0444C0210E20FFF72EFE56
:1031B000044400211420FFF729FE044400211520B7
:1031C000FFF724FE04449E210220FFF71FFE044463
:1031D00000210A20FFF71AFE044431480068022843
:1031E00004D004210E20FFF711FE04440021272003
:1031F000FFF70CFE04440F211F20FFF707FE0444D5
:103200000A211A20FFF702FE04440A211B20FFF7BF
:10321000FDFD04443046FFF7F7FC2046BDE8F08191
:103220002DE9F04105460C461646642C01DD64206C
:1032300005E0C4EB0420642190FBF1F0C0B2074626
:10324000324639462846FFF77BFF10B10120BDE822
:10325000F081FFF769FC0020F9E710B50021124862
:10326000FEF7C6FC1048FEF7B3FB00214FF4004008
:10327000FEF7A4FA10BD00003C00002000540040FE
:10328000010003008200070004000010A086010076
:10329000000C02400004024000080240000002400E
:1032A0004400002040000020003C004070471CB556
:1032B0004FF4A050009000208DF804008DF8050018
:1032C0008DF806008DF807006946F748FDF7FEFD0A
:1032D000102000906946F548FDF7F8FD0022042112
:1032E000F248FDF776FE00220A21EF48FDF771FE55
:1032F00000220C21EC48FDF76CFE8020009069460E
:10330000E948FDF7E3FD06220721E748FDF761FEE6
:103310001CBD10B50024FFF77CFE01210220FFF741
:1033200075FD0444FFF7C3FFFFF7C0FFFFF795FFEC
:10333000204610BD08B5DE480068C0B28DF8000018
:1033400000208DF801008DF802008DF8030068461A
:10335000FDF711FA0021D7480068FDF74DFCD5486C
:103360000068FDF76DFB08BD10B5FFF7E3FFFFF741
:10337000D0FF002010BD70B504460D46CE48006851
:1033800001280ED1CD4884606808CC490861C9483D
:103390000068FDF7F7FB0121C6480068FDF72CFC2B
:1033A0000CE0C648846005610146C2480068FDF72C
:1033B000E9FB0121BF480068FDF71EFCC0480088FA
:1033C00010F4806F04D10121BD481C38FEF710FCB9
:1033D00070BD0020704770B505460C46B9480460C2
:1033E000FFF7F7FF4FF48030B0EB940F01D9A0083E
:1033F00001E04FF6FF7001462846FFF7BCFFB148D9
:103400000068B0F5803F02D2AE48006801E04FF698
:10341000FF70C0EB5400AC490860AA480068B0F5E2
:10342000803F02D2A748006801E04FF6FF7005EB2D
:103430004000A6490860002070BD70B504460D46E6
:103440005CB9002202219E481C38FEF764FC002172
:1034500098480068FDF7D0FB14E00122022198484B
:103460001C38FEF758FC012192480068FDF7C4FBA8
:103470009348008810F4806F04D1012190481C38D3
:10348000FEF7B6FB70BD70B505460024012D05D1D1
:10349000FF210420FFF7BAFC044405E08C480178C2
:1034A0000420FFF7B3FC0444204670BD70B5054608
:1034B00000244DB90120FFF7E6FF0444012102205A
:1034C000FFF7A4FC04440EE00020FFF7DCFF0444F7
:1034D0007F4801780420FFF799FC04449E210220D4
:1034E000FFF794FC0444204670BD10B50446204606
:1034F000FFF7DCFF08B1012010BD00212046FFF7D7
:103500009CFF0020F8E710B500216A480068FDF72D
:1035100073FB70480068704A126810436F4A126863
:1035200010436F4A126840EA020162480068FDF7E2
:10353000DFFB002162481C38FEF75AFB10BD70B556
:10354000054600240120FFF79EFF022D05D19F2193
:103550000220FFF75BFC04440DE09F210220FFF7EF
:1035600055FC044440F6FF70FFF74EFD0022102189
:103570005C48FDF723FD204670BD10B5044620468B
:10358000FFF7DDFF08B1012010BDFFF7BCFF4D487C
:1035900000684D4908600020F6E770B50446642CC9
:1035A00001DD642005E0C4EB0420642190FBF1F010
:1035B000C0B20546FFF7E0FC70BD10B504462046DA
:1035C000FFF761FF10BD10B5424801683948006837
:1035D000FDF76FFB00285ED03B48006800284AD00A
:1035E00000BF34480068FDF754FB0028F9D1394882
:1035F000016830480068FDF77BFB344800682F49BC
:10360000886031480068B0F5803F02D22E480068DB
:1036100001E04FF6FF702949086126480068FDF770
:10362000B1FA012123480068FDF7E6FA2648006850
:10363000B0F5803F02D22448006801E04FF6FF70E9
:103640002249096801EB4000204908601E480068D3
:10365000B0F5803F02D21C48006801E04FF6FF70D1
:1036600019490968081A18490860012111480068B9
:10367000FDF7C2FA0FE000210E480068FDF7BCFA22
:10368000144801680B480068FDF732FB00210F4821
:103690000068FFF725FA10BD10B5FFF794FF10BDC5
:1036A00010B5FFF790FF10BD000802400000024077
:1036B000580000204C00002044000020A000002002
:1036C0001C3C004034000020380000207000002026
:1036D000400000205C00002060000020640000200A
:1036E00068000020000C024010B502210B48FEF7D4
:1036F00033FB88B10A480068022806D1FFF7EEF9CB
:10370000044621460420FDF719F9FFF7E7F90446BE
:1037100021460248FEF7E1FA10BD0000003C0040DF
:1037200044000020064C074D06E0E06840F001032D
:1037300094E8070098471034AC42F6D3FCF728FD14
:1037400068470008984700080000000002E008C829
:10375000121F08C1002AFAD170477047002001E00B
:1037600001C1121F002AFBD1704710B5002A06DAEA
:1037700022F00042D21D22F00703102203E0D21CE7
:1037800022F003030C2213B19C188C4201D90120B2
:1037900010BD024401448360C0E90021C91AD01859
:1037A000884202D810600246F9E70020106010BD80
:1037B00008480068C0010BD507480068C00707D05B
:1037C000054880380068002802DA044901200870A2
:1037D00070470000FCED00E0800E00E08600002055
:1037E0004FF06042D36F002BFCD0C36AD367D36F16
:1037F000002BFCD0C07840EA0120A2F87C00704782
:103800004FF06041CA6F002AFCD081F87C007047FD
:1038100070B504000D4603D012B92078012801D0FC
:10382000802070BD204600F043FA28B1294620468A
:1038300000F02CF8002070BD812070BD10B504464A
:103840008089002821D0608904EB8000006908602D
:103850006078022805D10021204600F07DFB00F0B1
:103860006BFB04F10C0000BFD0E85F1F491EC0E8ED
:10387000521F002AF8D16089401C80B26081E18922
:10388000884201D100206081042010BD10B500F0F5
:1038900063FBBDE8104000F04FBB0000EFF3058272
:1038A0000AB182207047EFF31482144B12F0030226
:1038B00006D0012A1BD0022A11D0032A19D113E005
:1038C000EFF3088282F309881A78D2070AD002221D
:1038D00082F31488BFF34F8FBFF36F8F09E01A781C
:1038E000D20706D10322F3E71A78D20701D0FF20CE
:1038F0007047DFF80CC000DF70470000D8460008B2
:10390000654400082DE90E40EFF30582B2B10200D4
:103910004FF0800000D021B10090DDE9011203B02A
:1039200000BD11780129F7D101A91046FFF786FFE4
:10393000042801D00020EFE71020EDE7DFF804C0F5
:1039400000DFECE75D450008DFF80CC000DFDFF8C2
:103950000CC000DFFEE7000009460008254600080D
:10396000DFF804C000DF70475D460008094C4FF0E7
:10397000FF3529462068FFF7C5FF02460846102A92
:10398000F7D1FFF7EDFF0028F3D002460846904735
:10399000EFE70000200000204FEA000151E8000F8F
:1039A00028B1036841E80032002AF7D17047BFF31D
:1039B0002F8F704710B568B161B10B3121F0030250
:1039C000016844680B1A1B1B934205D2084609681C
:1039D0000029F5D1002010BD3CB121180368C1E9D0
:1039E0000032016001F1080010BD4260083010BDD6
:1039F00070B50C46002812D04FF6FF71084D884272
:103A000004D22A680146104600F0D2FA28684470B1
:103A1000044800F0D3F8BDE8704000F08BBB70BDE7
:103A200078000020480100200F4810B50D49426879
:103A30000E480B680088934204D00A60CB88421E6F
:103A40001A448A808A8882420AD100200860064887
:103A500000F0B4F80146BDE81040034800F0D6BAC3
:103A600010BD0000880000204801002084000020D4
:103A700070B5194DE86800282CD0A88A401EA8828D
:103A8000002621E0A06838B161684160606810B12B
:103A9000A16881606660A6600F482146183800F072
:103AA000B5FAA08AA8826078042804D10B49E08A7C
:103AB00009880844A08201206070E068E860E0683E
:103AC00008B10561E6602661A88A002802D1EC6889
:103AD000002CD7D170BD00006001002084000020C0
:103AE00070B504000FD00D4DA178012628688278AA
:103AF00091420CD900F0A6FA286846702046BDE82D
:103B0000704000F017BB064800F058F8F7E7667001
:103B10002146BDE87040024800F078BA78000020E5
:103B20004801002010B50446008B084320836278CA
:103B3000618B062A18D0052A19D1084217D001EA4C
:103B40000002628388432083204600F09BFA012014
:103B50006070628B0821204600F08CFA2146BDE897
:103B60001040034800F052BA31EA0002EAD010BD1A
:103B700048010020814202D342688A4201D80120D4
:103B8000704750E8002F0A6040E80012002AF8D180
:103B90000020704768B161B10839002202E0024696
:103BA000006830B18842FAD12AB100681060002064
:103BB00070470120704700214160F8E701464068E6
:103BC00042684A600B780022022B05D0012B03D0FB
:103BD000032B01D04260704743680BB1996042608B
:103BE00082607047810700D00020704770B504469E
:103BF00000201546207001226270A1706060A060F4
:103C0000E0602061A082E0822083608384F820004D
:103C1000608C18B90448FFF7BFFEA0622946204611
:103C2000BDE8704000F01CB86001001008B1082920
:103C300001D2012070470144091F002201600A607F
:103C400042601046704700000348002101600349AC
:103C50000968C1807047000088000020D046000835
:103C600010B5428C920803D10F4A1268C2F38D023C
:103C7000836A03EB8202530700D5121F403A4FF0CC
:103C80008073C2E90E1300234FEA030442F8234075
:103C90005B1C0E2BFAD3C36913624262C162806A55
:103CA0000249016010BD0000CC460008A52E5AE272
:103CB000C1898089081A704701220270002242706F
:103CC0008270426002814281103982818908C181FB
:103CD000704700002DE9F0410446407800270E4669
:103CE0004FF00108012855D004F10C0502282BD013
:103CF000032818D0A089E189884262D2208904EB88
:103D000080000661D5E85F0F401CC5E8510F00290F
:103D1000F8D12089401C80B22081E189884200D1FD
:103D20002781BDE8F0810846FFF736FE0600F8D08F
:103D30002046FFF743FF0546606800B967703146CB
:103D4000284600F091F931E02046FFF737FF06469C
:103D5000606800B967700021304600F085F921895C
:103D6000F06904EB81010861D5E85F0F401CC5E8EC
:103D7000510F0029F8D12089401C80B22081E189AF
:103D8000884200D1278186F80180304600F07AF918
:103D9000314611E02046FFF711FF0546606800B983
:103DA000677032461021284600F064F985F80180DA
:103DB000284600F067F92946BDE8F041034800F0C5
:103DC00025B9BDE8F0410320FCF7D2BB4801002033
:103DD00070B50446808915460026C8B3608904EB97
:103DE0008000006908606089401C80B26081E189C0
:103DF000884200D16681607802280AD014F10C0450
:103E0000D4E85F0F401EC4E8510F0029F8D100200C
:103E100070BD2046FFF7D2FE0546606800B96670A7
:103E20000021284600F020F92189E86904EB81018E
:103E300008612089401C80B22081E189884200D13C
:103E40002681284600F01EF92846FFF749FEDEE7E6
:103E5000FFE73DB10A48626801682AB1204600F0D8
:103E6000D5F807E0012070BD61600068C0E9016419
:103E70000120607008212846FFF7BAFDF2E7000034
:103E800078000020411C13D00B4A4FF6FE7190427F
:103E90000CD800EB4002C2EBC0120848036803EBE9
:103EA000C202521EB2FBF3F0884200D908467047A6
:103EB0004FF6FF707047000000093D00DC46000827
:103EC00070B51A4801210068417000F0BBF8184D28
:103ED0006C7816E005EBC40148680278E2B1012A6B
:103EE0001FD000F0FBF8E878641C844200D1002465
:103EF0000F48801CD0E84F1F491EC0E8421F002A0F
:103F0000F8D1A8780028E5D16C700A48FFF756FE72
:103F1000BDE8704000F00EB9896889B2FFF702FE73
:103F2000E1E78968FFF7D6FEDDE7000078000020B2
:103F3000D0070010480100200548017811B1012187
:103F40004170704703494FF080500860704700008F
:103F50008000002004ED00E0F0B4144B9C1CDD78E0
:103F60004FEA030CD4E84F2FAA4202D1BFF32F8FA0
:103F70000EE0521CC4E8462F002EF3D1DCE84F2F90
:103F8000541CAC4200D10024CCE8464F002EF5D1A1
:103F9000DC78944205D903EBC202C2E90101F0BC0E
:103FA0007047F0BC0220FCF7E3BA0000D007001015
:103FB000154A10B5D368FBB113469B8A09E000BFD0
:103FC000D2F80CC0BCF1000F16D0BCF81440624609
:103FD00023448B42F4D3D468C460D0600261D0F82B
:103FE0000CC0BCF1000F01D0CCF81000591A81822E
:103FF000908A401A908210BD0024C460D060C91A13
:1040000002619182848210BD6001002010B50278A7
:104010000023022A03D0012A01D0032A00D1012360
:1040200091F802C000E01046426812B194786445ED
:10403000F9D24A6041601BB102B19160886010BD45
:104040000020FBE703494A68426000228260486022
:10405000704700004801002090F82010406A09B124
:10406000603070472030704710B50C46FFF7F4FF02
:10407000046010BD70B50C461546FFF7EDFFC0E9B2
:10408000004570BD10B5016900290ED0C268CA6034
:10409000C36800223BB18B8A848A23448B82C36825
:1040A0001961C26000E08A82026110BD816839B185
:1040B00042684A604168002901D080688860704782
:1040C000054906E04A68824202D14068486070476C
:1040D00011460029F6D170474801002010B541680B
:1040E00081B1FFF76BFD0446FFF7CCFF0120607044
:1040F00001462046FFF7B8FF2146BDE810400348BF
:10410000FFF784BF4188491C418010BD4801002051
:1041100006480068D0E90910814203D300680449C9
:10412000884202D00120FCF723BA704778000020B3
:10413000A52E5AE20749022248604270064A1278C8
:10414000002A05D006C98A4202D0C078FFF758BBC2
:104150007047000078000020860000202DE9F04123
:1041600004460D469046FFF723FB002006463849DB
:10417000384B02E041F82060401C1A889042F9D385
:104180003548302201883548FFF7EFFA3448006897
:1041900080B240F00042334801683348FFF7E5FA47
:1041A00032480822018832480068FFF7DEFA314FB2
:1041B000FF20314AF8707E8400213846FFF716FD53
:1041C0002E480421017046602D480170C6600661CA
:1041D0008682786A2030FBF7E5FF2A482B49076082
:1041E000022078702848067046700978C170284807
:1041F00001684FF0E0204161866107210161254897
:104200000168254A114301600068224900F07F409F
:10421000C0431439B0FA80F00968C0F10800C1F356
:104220000221814200DB481C1A49091F0B686FF00C
:104230008072824063F317020A60FFF705FD424671
:1042400029462046BDE8F041002300F06DB800008B
:1042500054080010C8460008E4460008000000109A
:10426000CC460008E8460008600100100C47000832
:1042700018000020180100206D05000848010020EA
:104280006001002078000020D0070010F0460008F0
:10429000D446000820ED00E00000FFFF0B4810B5F9
:1042A000006801214170FFF7CDFEFFF7BDFB084913
:1042B0000888401C0880FFF7DBFB00F0DBF90548AD
:1042C000FFF77CFCBDE81040FFF734BF780000200A
:1042D0008400002048010020002805D0810702D179
:1042E0000178002900D000207047000030B50D4C47
:1042F0000023226808E000BFB2F808C08C4505D84A
:1043000013461268A1EB0C01002AF5D189B20260B4
:10431000018112B11589691A11810BB1186030BD84
:10432000206030BD740000202DE9F0418046164623
:104330001F460D4611F0FF0F00D14D1C1648FFF728
:104340002BFB040026D0280AA6626084E9B242460C
:104350002046E761FFF74AFC01251048104905E0B7
:1043600000EB850252F8042C22B16D1C0A8895429C
:10437000F6D9002500EB850040F8044C0948E570AB
:10438000007818B101212046FFF72AFA2046FFF7EE
:10439000A7FB2846BDE8F08100000010540800107B
:1043A000C8460008860000202DE9F041244C234F28
:1043B000244B22680026D17808B1814218D103EB42
:1043C0008100567040F8046C1F48916AFFF7D2FBD9
:1043D00020688662397811B10021FFF701FA1B4885
:1043E0002168FFF7C7FB00202660FFF779FB1FE07D
:1043F0001749098888421ED803EB800555F8044CFC
:10440000CCB12046FFF752FE2046FFF73BFE45F8B1
:10441000046C0D48A16AFFF7ADFBA662387818B1AD
:1044200000212046FFF7DCF921460848FFF7A2FBF0
:104430000020BDE8F081FF20FBE70000860000209F
:1044400078000020540800106001001000000010E7
:10445000C846000802480068002800D0C0787047AD
:104460007800002070B504000D4608D0206830B1F7
:10447000B4F9040010F1030F01DB032801DD8620ED
:1044800070BD244E306840B1204600F085F8A0B1E0
:1044900000F0BAF800F0C6F837E01F4840070CD12A
:1044A0001E4801681C48FFF7C1FB30B9E16831B113
:1044B0001948FFF77FFA020002D1852070BD002263
:1044C000B4F90400E168001D40EA01212068FFF70B
:1044D00045FE7068D8B1C078114901EB800050F8F2
:1044E000040C3060416A0D62406A0E49416300214C
:1044F0000D4800F021F80D49086000210C4800F03B
:104500004BF80C49086000203060002070BDFF208F
:1045100070BD00007800002020060010EC46000866
:104520005408001049390008044700082000002002
:10453000F44600081C00002010B5040005D02168D6
:1045400019B1606808B102780AB1002010BD890075
:10455000103189B2FFF7B0FB606810BD3EB50400B2
:104560000D464FF0800012D0217801290FD1284646
:10457000FFF788FC82B201A92046FFF729FC012839
:1045800001D0102003E00DB1402000E00020DDE963
:10459000011203B030BD000070B504000E462BD0F0
:1045A000206848B3B4F9040010F1030F24DB03289A
:1045B00022DCE16829B11148FFF7FCF9050015D0AC
:1045C00000E00025B4F90400E168001D40EA012183
:1045D00033462A462068FFF7A7FE40B1084901EBA1
:1045E0008000084950F8040C426A516370BD1DB147
:1045F00029460248FFF7CEFA002070BD20060010C1
:10460000540800104939000810B5FFF723FF0028AF
:1046100004D0034901EB800050F8040C10BD0000E9
:104620005408001070B5FFF757FE040003D0608CEB
:1046300018B1A56A02E0802070BD0025E078FFF780
:10464000B3FEFF2806D01DB10348A16AFFF7A2FA06
:10465000002070BD812070BD2006001010B5FFF74E
:10466000C1FA20B101690A68C168104610BD002076
:10467000014610BD2DE9F041114E3468002C18D0D0
:104680002089104F401E20814FF001080EE0254682
:1046900024683460002229463868FFF7B9F8687941
:1046A000012808D085F80480002C02D02089002839
:1046B000EDD0BDE8F08169892846FFF717FEF3E7E2
:1046C000740000202000002007000000C800020144
:1046D000050001003F90020001000000E803000017
:1046E000000000005C010000C0040000B0010000F8
:1046F000100000006D3900080200000001000000F9
:10470000C800000004000000700800100000000055
:10471000A50500080000000001000000C80000001E
:10472000FF078F090F0B710CAA0DA60E630FD80F90
:10473000FF0FD80F630FA60EA70D710C0F0B8F097B
:10474000FF076F06EF048D03570258019B002600F8
:10475000000026009B00580157028D03EF046F06EE
:1047600000336699CCFF0000984700080000002045
:10477000900000004C370008984700080000001027
:10478000900800005C3700082848000890000020CE
:10479000E80400005C370008007A030A000000000B
:1047A00000000000010203040607080900000000E1
:1047B00000000000000000000000000000000000F9
:1047C000010203040102030406070809FFFF0000B9
:1047D000FFFF000000C01200000000000100000008
:1047E00000002000B86002400C3C004000000000C7
:1047F0002F000000000000280000002400004020DE
:104800000000002200000021000000000000000065
:104810000000000000000000000000000000000098
:08482000000000000000000090
:040000050800018965
:00000001FF
