:020000040800F2
:100000006805002049050008750500087705000807
:100010007B0500087F05000883050008000000003C
:1000200000000000000000000000000009020008BD
:100030008705000800000000AD0200080D0300085D
:1000400063050008630500086305000863050008F0
:1000500063050008630500088905000863050008BA
:1000600063050008630500086305000855280008BB
:1000700063050008630500086305000863050008C0
:1000800063050008630500086305000863050008B0
:1000900063050008630500086305000863050008A0
:1000A0006305000863050008630500086305000890
:1000B0006305000863050008630500086305000880
:1000C0006305000863050008630500086305000870
:1000D0006305000863050008630500086305000860
:1000E0006305000863050008630500086305000850
:1000F0006305000863050008630500084D28000833
:100100006305000863050008630500089D280008D2
:10011000630500086305000863050008630500081F
:10012000630500086305000863050008630500080F
:1001300063050008630500086305000863050008FF
:1001400063050008630500086305000863050008EF
:1001500063050008630500086305000863050008DF
:1001600063050008630500086305000863050008CF
:1001700063050008630500086305000863050008BF
:100180006305000863050008DFF814D002F0A4FB43
:100190000021024802F05CFCFEE70000C4380008C1
:1001A0006805002080F309887047684680F3098855
:1001B00004480078C00714BF0220032080F314888D
:1001C000704700008C380008DFF818C0EFF3058393
:1001D0001B0618BF6047EFF31483DB0708BF6047B7
:1001E00000DF70474D2B0008DFF818C0EFF30583E0
:1001F0001B0618BF6047EFF31483DB0708BF604797
:1002000000DF7047292D0008EFF30980816911F89C
:10021000021C002933D190E80F1010B5E047BDE86B
:100220001040EFF3098C8CE807001D4B93E80600A3
:10023000914208BF704781B11EF0100F06BF2CED30
:10024000108A0120002081F820002CE9F00FC1F86D
:1002500024C00CB403F036F80CBC1A60D2F824C0E9
:10026000BCE8F00F92F8200000281ABFBCEC108AFE
:100270006FF0120E6FF0020E8CF30988704710B504
:10028000084A1268914209D8074C54F8214090E876
:100290000F10A047EFF3098C8CE80F0010BD000091
:1002A00078000020FC280008FC28000810B502F0A7
:1002B000E1FEBDE81040174B93E80600914208BFED
:1002C0007047EFF3098C1EF0100F06BF2CED108A5B
:1002D0000120002081F820002CE9F00FC1F824C093
:1002E0000CB402F0EFFF0CBC1A60D2F824C0BCE8DA
:1002F000F00F92F8200000281ABFBCEC108A6FF0B3
:10030000120E6FF0020E8CF30988704710B503F0DF
:100310009FF8CEE778000020002100207E4A126876
:1003200042F480327C4B1A6000BF7B4A126802F4B0
:100330000030491C10B9B1F5A06FF6D1764A1268A9
:1003400012F4003F01D0012000E00020012845D137
:10035000714A4032126842F080526F4B40331A604B
:100360006E4A126842F480426C4B1A606A4A083244
:100370001268694B08331A601A46126842F4004248
:100380001A601A46126842F4A0521A60644A1B1F8F
:100390001A601A1F126842F080721B1F1A6000BF99
:1003A0005D4A126812F0007FFAD040F205625D4BA0
:1003B0001A60594A0832126822F00302564B083379
:1003C0001A601A46126842F002021A6000BF524ACE
:1003D0000832126802F00C02082AF8D14E4A08329C
:1003E000126822F400024C4B08331A604E4A4A4B02
:1003F00084331A60484A126842F08062464B1A60A1
:1004000000BF454A126812F0006FFAD0704710B56D
:100410004648006840F47000444908603E4800685F
:1004200040F001003C49086000203B490831086069
:10043000394800683E490840374908603D48091D71
:100440000860081F006820F48020091F0860002051
:1004500031490C310860FFF75FFF4FF0006033490E
:100460008039086010BD30B5002000220223844688
:100470000221294C0834246804F00C0020B104281F
:1004800006D0082836D107E02B4C2C4D2C6035E0E7
:100490002B4C2A4D2C6031E01F4C241D2468C4F3E2
:1004A000805C1D4C241D246804F03F01BCF1000F4A
:1004B0000AD0234CB4FBF1F4174D2D1D2D68C5F364
:1004C000881504FB05F209E01B4CB4FBF1F4124D56
:1004D0002D1D2D68C5F3881504FB05F20E4C241D57
:1004E0002468C4F30144641C6300B2FBF3F4134DAD
:1004F0002C6003E0104C114D2C6000BF00BF064C77
:1005000008342468C4F303140E4D285D0B4C246892
:10051000C4400A4D2C6030BD0038024000700040DD
:1005200008544007003C02408040003088ED00E065
:10053000FFFFF6FE103000240024F400000000202D
:1005400000127A0004000020064880470648004751
:10055000FEE7FEE7FEE7FEE7FEE7FEE7FEE7FEE773
:10056000FEE7FEE70F0400088901000800BFFEE770
:1005700000BFFEE7704700BFFEE700BFFEE700BF19
:10058000FEE700BFFEE7704770470020704700009D
:1005900033490143334A1160704770B5002100238D
:1005A0000F22C47824B32F4C246804F4E064C4F50B
:1005B000E064C4F30721C1F10404E3B20A414478C2
:1005C0009C40E1B28478144021430C07210E264C54
:1005D00005786155047804F01F050124AC400578C6
:1005E0006D114FF0E02606EB8505C5F8004109E0E6
:1005F000047804F01F050124AC401C4D06787611E8
:1006000045F8264070BD1A4A0A400243154B1B1F8D
:100610001A60704739B1134A121D12680243114B18
:100620001B1D1A6006E00F4A121D126882430D4B13
:100630001B1D1A607047042808D14FF0E02109699A
:1006400041F004014FF0E022116107E04FF0E0219A
:10065000096921F004014FF0E022116170470000A8
:100660000000FA050CED00E000E400E080E100E0AD
:1006700080FFFF1F10B50121480701F016F8002187
:100680004FF0005001F011F810BD30B500220023EA
:10069000734C226840F6FE748440A243D1E90045C1
:1006A0002C438D682C43CD6844EA050303FA00F41B
:1006B00022436B4C226030BD0021016041608160AB
:1006C000C160704739B1664A1268012383401A43FA
:1006D000634B1A6006E0624A1268012383409A4322
:1006E0005F4B1A60704710B551B15D4A121D126818
:1006F00004090123A3401A43594B1B1D1A6009E04A
:10070000574A121D126804090123A3409A43544B0F
:100710001B1D1A6010BD40B15149091D096841F007
:1007200003014F4A121D116007E04D49091D096878
:1007300021F003014A4A121D1160704710B53AB109
:10074000474B1B6801FA00F42343454C236006E045
:10075000434B1B6801FA00F4A343414C236010BDD6
:1007600000223F4A00F108031A441160704700223A
:100770003B4A00F114031A441160704710B54FF062
:10078000000C0023082802D142EA012C01E042EAD1
:10079000014C334B00F120042344C3F800C010BDCA
:1007A000014600222E4A2C2000EB910002441068E2
:1007B00080B2704741B12A4A12684FF48053834097
:1007C0001A43274B1A6007E0254A12684FF48053FA
:1007D00083409A43224B1A60704710B53AB1204BC0
:1007E0001B6801FA00F423431D4C236006E01C4BF8
:1007F0001B6801FA00F4A343194C236010BD10B527
:1008000002460020164B34331B6801FA02F42342DF
:1008100001D0012000E0002010BD01FA00F2104BD1
:1008200034331A60704730B50246002000230C4C68
:10083000246801FA02F504EA0503094C34342468FB
:1008400001FA02F52C4202D00BB1012000E0002099
:1008500030BD01FA00F2024B34331A6070470000D9
:1008600000740040016821F0010101600021016075
:1008700041608160C160016121214161DD4988429F
:1008800004D13D21DB4A103A91608CE0D9491831FE
:10089000884205D14FF47461D64A103A916082E0E3
:1008A000D4493031884205D14FF47411D14A103AFD
:1008B000916078E0CF494831884205D14FF07461AA
:1008C000CC4A103A91606EE0CA496031884204D146
:1008D000C949C84A103AD16065E0C64978318842B2
:1008E00004D1C649C34A103AD1605CE0C149903195
:1008F000884204D1C249BF4A103AD16053E0BD4991
:10090000A831884205D14FF03D51BA4A103AD16022
:1009100049E0BC49884204D13D21BA4A083A1160F5
:1009200041E0B8491831884205D14FF47461B54AA5
:10093000083A116037E0B3493031884205D14FF4AD
:100940007411B04A083A11602DE0AE49483188422E
:1009500005D14FF07461AB4A083A116023E0A94910
:100960006031884204D1A449A64A121F11601AE0DE
:10097000A4497831884204D1A049A24A121F1160CB
:1009800011E0A0499031884204D19D499D4A121F2F
:10099000116008E09B49A831884204D14FF03D51D5
:1009A000984A121F1160704710B500220268964BDA
:1009B0001A40CC680B6823434C6923438C6923435A
:1009C000CC6923430C6A23434C6A23438C6A234338
:1009D0004C6B23438C6B23431A430260426922F021
:1009E0000702D1E90B3423431A4342610B69436088
:1009F0004B6883608B68C36010BD0021016041605B
:100A00008160C160016141618161C16101624162D6
:100A10008162C162016341638163704721B10268F1
:100A200042F00102026003E0026822F0010202606B
:100A3000704721B1026842F40042026003E002689C
:100A400022F400420260704721B1026842F02002A5
:100A5000026003E0026822F02002026070474160F9
:100A600070470146486880B2704722B1036843F47A
:100A70000023036003E0036823F4002303600161A3
:100A8000704721B1026842F48022026003E00268EC
:100A900022F48022026070470AB1016100E0C16067
:100AA0007047014600200A6812F4002F01D001208F
:100AB00000E000207047014600200A6812F0010F94
:100AC00001D0012000E000207047014600204A6963
:100AD00002F03800704710B503460A4600208446ED
:100AE000484CA34202D24349103901E0454910392C
:100AF00012F0005F02D0D1F804C001E0D1F800C0CC
:100B0000424C0CEA040C1CEA020F01D0012000E068
:100B1000002010BD02463B4B9A4202D235481038A5
:100B200001E03848103811F0005F03D0374B0B401C
:100B3000C36002E0354B0B408360704710B511F085
:100B4000800F09D022B1436943F08003436103E081
:100B5000436923F08003436180290BD02AB10368E5
:100B600001F01E042343036004E0036801F01E0447
:100B7000A343036010BD30B5024600200024844624
:100B8000204DAA4202D21B4B103B01E01D4B103BF3
:100B90001F4D294206D01E2505EAD124156805EA15
:100BA000040C02E0556905F0800C11F0005F01D0E3
:100BB0005C6800E01C68154D2C400C4204D0BCF170
:100BC000000F01D0012000E0002030BD02460D4B97
:100BD0009A4202D20748103801E00A48103811F052
:100BE000005F03D0094B0B40C36002E0074B0B4092
:100BF00083607047106002403D000020400F0020DD
:100C000000003D20106402403F801CF07D0F7D0FEE
:100C10003C0F3C0F10B504468848844208D101219E
:100C2000084600F0FFFC0021012000F0FBFC5EE024
:100C30008348844208D10121022000F0F3FC002106
:100C4000022000F0EFFC52E07E48844208D10121EE
:100C5000042000F0E7FC0021042000F0E3FC46E063
:100C60007948844208D10121082000F0DBFC0021F2
:100C7000082000F0D7FC3AE07448844208D10121F2
:100C8000102000F0CFFC0021102000F0CBFC2EE063
:100C90006F48844208D10121202000F0C3FC0021CC
:100CA000202000F0BFFC22E06A48844208D10121E4
:100CB000402000F0B7FC0021402000F0B3FC16E01B
:100CC0006548844208D10121802000F0ABFC00215E
:100CD000802000F0A7FC0AE06048844207D101218F
:100CE000801500F09FFC0021A01500F09BFC10BDBA
:100CF00070B50A46002100238C4600BF3DE0012468
:100D000004FA01F3146804EA030C9C4534D1046826
:100D10004E000325B540AC43046014794D00AC404F
:100D200005682C4304601479012C02D01479022C3C
:100D300016D184684E000325B540AC4384605479D5
:100D40004D00AC4085682C438460446801258D408B
:100D5000AC434460446895798D40ADB22C43446007
:100D6000C4684E000325B540AC43C460D4794D003F
:100D7000AC40C5682C43C460491C1029BFD370BD6A
:100D80004FF6FF7101600021017141718171C171E4
:100D900070474FF480320A43C261C161C261C269C7
:100DA000C26970470246002013690B4201D001203E
:100DB00000E0002070470146086980B27047024693
:100DC000002053690B4201D0012000E00020704751
:100DD0000146486980B2704701837047418370477C
:100DE0000AB1018300E04183704741617047426965
:100DF0004A404261704770B500239C464C07E40EA0
:100E000002FA04F3CD1000F1200454F825404D07F8
:100E1000EE0E0F25B540AC43CE1000F1200545F88D
:100E20002640CD1000F1200454F8254044EA030C7C
:100E3000CD1000F1200444F825C070BD0000024030
:100E40000004024000080240000C02400010024072
:100E50000014024000180240001C02400020024022
:100E600010B50446FB48844209D10121480500F031
:100E70001CFC00214FF4001000F017FC18E0F648AD
:100E8000844209D10121880500F00FFC00214FF4B4
:100E9000800000F00AFC0BE0F048844208D10121F8
:100EA000C80500F002FC00214FF4000000F0FDFB3B
:100EB00010BD2DE9FF4704460D460026B146042724
:100EC000DFF89C83A6884FF6C0700640684600F0A5
:100ED000C3FADDF80880E348B8FBF0F01FFA80F9A8
:100EE00046EA0906A68020884FF6FE710840208059
:100EF0000026DD49286888420CD828684000B8FBE5
:100F0000F0F087B2042F00DA04273E4309F1010014
:100F1000208427E0E888A0F53F41FF3906D1286802
:100F200000EB4000B8FBF0F087B209E0286800EB66
:100F3000C00101EB0010B8FBF0F087B247F4804726
:100F40003805000D01D147F0010747F40040064382
:100F50004FF4967009FB00F04FF47A7190FBF1F0BA
:100F6000401C2084A683208840F001002080268831
:100F70004FF6F5300640A888698908430643268065
:100F8000A889298908432081BDE8FF8741F288317B
:100F90000160002181804BF6FF71C1800021018139
:100FA00041814FF480418181704721B1028842F034
:100FB0000102028004E002884FF6FE731A400280AC
:100FC000704721B1028842F48072028004E00288F6
:100FD0004FF6FF631A400280704721B1028842F445
:100FE0000072028004E002884FF6FF531A4002802C
:100FF000704712B141F0010101E001F0FE010182F0
:10100000704721B1028842F48062028004E00288C5
:101010004FF6FF331A40028070470A46002181894B
:101020004FF60173194002F0FE03194381817047A6
:1010300021B1828942F00102828104E082894FF667
:10104000FE731A408281704721B1028842F040024B
:10105000028004E002884FF6BF731A400280704796
:1010600021B1028842F40042028003E00288C2F308
:101070000E020280704721B9028842F0800202808D
:1010800004E002884FF67F731A4002807047B1F582
:10109000804F05D0828B4BF6FF731A40828303E0AA
:1010A000828B42F4804282837047B1F5006F04D195
:1010B000028842F40062028004E002884FF2FF736B
:1010C0001A4002807047B1F5005F04D1028842F4F3
:1010D0000052028004E002884DF6FF731A4002803D
:1010E000704721B1028842F01002028004E00288B9
:1010F0004FF6EF731A400280704701827047014635
:10110000088AC0B2704721B1028842F4805202803E
:1011100004E002884EF6FF731A4002807047B1F572
:10112000006F04D1028842F40062028004E0028869
:101130004FF2FF731A400280704721B1028842F0DB
:101140002002028004E002884FF6DF731A4002801A
:1011500070470146088B0012704721B1828842F423
:101160000062828004E082884FF2FF731A4082801E
:10117000704721B1828842F48052828004E08288E4
:101180004EF6FF731A4082807047024600231346D2
:101190000B441888704710B51AB183880B438380BD
:1011A00004E08388CC43A4B22340838010BD30B5D3
:1011B00002460024A44600230020B2F814C0138B7A
:1011C0001B044CEA030525F07F4404EA01058D4227
:1011D00001D1012000E0002030BD10B50146002003
:1011E000002300228B8A0A8B120443EA020424F0B3
:1011F0007F4010BD10B503460020844600221A46E9
:101200004FEA117C21F07F41BCF1000F01D0143274
:1012100001E0090C183214680C4201D0012000E0F2
:10122000002010BD002221F07F42D343838270470B
:1012300030B5024600200023948801F0E06504EAFE
:10124000154321F07F41948A0C420FD073B10120E5
:101250000DE000000054004000580040005C0040D9
:1012600000127A0040420F00A0860100002030BD2D
:10127000002221F07F42D34383827047FA480068FE
:1012800040F00100F84908600020F7490831086083
:10129000F5480068F5490840F3490860F448091D1D
:1012A0000860081F006820F48020091F08600020E3
:1012B000ED490C31086070470021EB4A921C117017
:1012C00011460870704710B5014600220023002027
:1012D0004A11012A02D1E44C236808E0022A03D112
:1012E000E14C7034236802E0DF4C7434236801F071
:1012F0001F02012494401C4201D0012000E0002084
:1013000010BD70B500240025002600BF3120FFF776
:10131000DAFF0646641CB4F5A06F01D0002EF5D0AC
:101320003120FFF7D0FF08B1012500E00025284655
:1013300070BD01460020CC4A106820F0F80040EA59
:10134000C10010607047CB49086070470021C64A51
:10135000703211701170012802D004280AD104E003
:101360000121C14A7032117005E00521BE4A703278
:10137000117000E000BF00BF7047BF4908607047B0
:1013800030B5DDF80CC041EA82140125C5EB5305E8
:1013900044EA0544044344EA0C64B34D2D1D2C601B
:1013A00030BDB44908667047820142EA0172AE4B13
:1013B00084331A607047AF4988667047AD49C86486
:1013C000704702460020A84B0833186820F0EC60F4
:1013D00042EA01031843A44B0833186070470246E1
:1013E0000020A14B0833186820F0784042EA01033E
:1013F00018439D4B083318607047014600209A4AF5
:101400000832106820F003000843106070479648C7
:101410000830006800F00C00704701460020924A36
:101420000832106820F0F000084310607047014651
:1014300000208D4A0832106820F4E0500843106004
:10144000704701460020884A0832106820F4604046
:1014500040EAC10010607047F0B50021002200246E
:1014600002258C460223804E0836366806F00C01B1
:1014700021B1042905D0082933D105E07F4E06604B
:1014800032E07F4E06602FE0774E361D3668C6F399
:10149000805C754E361D366806F03F03BCF1000FC8
:1014A0000AD0774EB6FBF3F66F4F3F1D3F68C7F388
:1014B000881706FB07F409E0704EB6FBF3F66A4F97
:1014C0003F1D3F68C7F3881706FB07F4664E361DBD
:1014D0003668C6F30146761C7500B4FBF5F6066067
:1014E00002E0664E066000BF00BF5F4E08363668F9
:1014F00006F0F0010909634E725C0668D64046604A
:10150000594E0836366806F4E051890A5D4E725C21
:101510004668D6408660544E0836366806F4604108
:10152000490B584E725C4668D640C660F0BD00213B
:1015300000F44072B2F5407F0AD14B4A083211687C
:1015400021F4F811504A02401143474A0832116011
:10155000454A70321268C0F30B031A43424B703392
:101560001A6070474449443908607047424940391D
:101570000860704745490860704739B13A4A3032CF
:1015800012680243384B30331A6006E0364A303274
:1015900012688243344B30331A60704739B1324A93
:1015A000343212680243304B34331A6006E02E4A5C
:1015B0003432126882432C4B34331A60704739B18D
:1015C000294A383212680243274B38331A6006E042
:1015D000254A383212688243234B38331A607047E9
:1015E00039B1214A4032126802431F4B40331A601E
:1015F00006E01D4A4032126882431B4B40331A609A
:10160000704739B1184A443212680243164B4433CA
:101610001A6006E0144A443212688243124B443383
:101620001A60704739B1104A1032126802430E4BEB
:1016300010331A6006E00C4A1032126882430A4BDB
:1016400010331A60704739B1074A143212680243E6
:10165000054B14331A6006E0034A143212688243C1
:10166000014B14331A60704700380240FFFFF6FE4A
:101670001030002400004742800E47420024F4004E
:1016800000127A0024000020FFFCFF0F5C0147429B
:1016900029B1574A12680243554B1A6004E0544A74
:1016A00012688243524B1A60704739B1504A08326F
:1016B000126802434E4B08331A6006E04C4A083267
:1016C000126882434A4B08331A60704739B1484A5E
:1016D0000C3212680243464B0C331A6006E0444A4F
:1016E0000C3212688243424B0C331A60704739B196
:1016F0003F4A3832126802433D4B38331A6006E0E5
:101700003B4A383212688243394B38331A6070478B
:1017100039B1374A3C3212680243354B3C331A60C8
:1017200006E0334A3C3212688243314B3C331A6044
:10173000704739B12E4A4032126802432C4B403375
:101740001A6006E02A4A403212688243284B40332E
:101750001A60704739B1264A483212680243244B56
:1017600048331A6006E0224A483212688243204B0E
:1017700048331A60704739B11D4A4C32126802432F
:101780001B4B4C331A6006E0194A4C3212688243F4
:10179000174B4C331A60704739B1154A0B3A12781F
:1017A0000243134B0B3B1A7008E0114A0B3A1278B4
:1017B000C343DBB21A400E4B0B3B1A7070470C4808
:1017C0005C30006840F0807009495C310860704707
:1017D00001460020064A0C3A12680A4201D0012054
:1017E00000E00020704702490A3908707047000085
:1017F0001838024010B50446F948844208D1012146
:101800008014FFF763FF0021A014FFF75FFF16E0CD
:10181000F448844208D101210014FFF746FF00215B
:101820002014FFF742FF0AE0EF48844207D101216C
:10183000C013FFF73AFF0021E013FFF736FF10BD9A
:1018400010B50022028802F441520B884C882343D1
:101850008C882343CC8823430C8923434C8923431E
:101860008C892343CC8923431A430280838B4FF214
:10187000FF74234083830B8A038210BD2DE9F04F50
:1018800000250223002401270022002694469046CA
:101890009146B0F81CA04FF2400B0AEA0B0AA0F8E0
:1018A0001CA04FF0020AA0F820A0858BD1F808A058
:1018B000BAF1020F01D100BF67E0B1F804A0BAF19C
:1018C000000F01D1012700E00227DFF820A3DAF89A
:1018D00000A01AF4000F09D0DFF810A3DAF800A076
:1018E0002AF4000ADFF804B3CBF800A0DFF8FCA26A
:1018F0000AF17C0ADAF800A0CAF38818DFF8ECA233
:101900000AF17C0ADAF800A0CAF30279DFF8DCA257
:10191000AAF1040ADAF800A00AF03F0CDFF8D0A21E
:10192000BAFBFCFA0AFB08FABAFBF9F6B1F806A012
:10193000BAF5007F0ED14FEA162A0AEB8A0A4FEA5F
:101940004A0AD1F808B0BAFBFBFA0AF1050A1FFAF5
:101950008AF20FE04FEA471AB6FBFAFA0AEB8A0A54
:101960004FEA4A0AD1F808B0BAFBFBFA0AF1050AB5
:101970001FFA8AF24FF00A0AB2FBFAF202F00104EF
:10198000A2EB040ACAF34F032402022B01DBFF2B54
:1019900001DD02230024B1F806A04AEA040A4AEA5B
:1019A000030AA0F820A0B1F804A0B1F80CB04AEAEC
:1019B0000B0AB1F802B04AEA0B0AB1F800B04AEAE1
:1019C0000B0A4AF4006A4AEA05058583BDE8F08FF0
:1019D0000021018041808180C1800181418181811C
:1019E000C1810721018270470021018041808180EF
:1019F000C1800221816000218181704721B102886C
:101A000042F04002028004E002884FF6BF731A40A1
:101A10000280704721B1828B42F48062828304E0AD
:101A2000828B4FF6FF331A408283704702884FF251
:101A3000FF731A40028002880A4302807047B1F5A2
:101A4000804F04D1028842F48042028004E0028880
:101A50004BF6FF731A4002807047A1F57E42FF3AB1
:101A600004D0028842F48072028004E002884FF6BB
:101A7000FF631A400280704721B1828842F004025D
:101A8000828004E082884FF6FB731A4082807047A0
:101A900021B1828842F01002828004E082884FF6F1
:101AA000EF731A408280704730B500220023848B88
:101AB0004FF240052C40848302240484828B0C88DE
:101AC000B4F5007F01D00C8814B94FF4807308E09E
:101AD0000C88B4F5407F03D00C88B4F5807F00D12A
:101AE00000238C888D892C434D882C431C4344F45F
:101AF00000642243828330BD01468889704781811A
:101B0000704721B1028842F40052028004E002884A
:101B10004DF6FF731A4002807047018841F48051EE
:101B20000180704702460020012901D0108B00E09F
:101B3000908A70470146088A704710B51AB18388A9
:101B40000B43838004E08388CC43A4B2234083808A
:101B500010BD30B54FF0000C00234FEA211C0124CA
:101B600004FA0CF4A3B21AB184881C43848004E004
:101B70008488DD43ADB22C40848030BD0246002015
:101B800013890B4201D0012000E000207047CA43B6
:101B90000281704770B5024600200024002384466D
:101BA00001F00F060125B540ACB20B1101259D4097
:101BB000ABB2958805EA030C1589254204D0BCF127
:101BC000000F01D0012000E0002070BD10B5002200
:101BD00001F00F040123A3409AB2D343038110BD47
:101BE0000030014000380040003C0040083802400E
:101BF00000127A00F74908600968012923D14905D4
:101C0000F54A1160F549F64A1160F649F64A116045
:101C10000021F64A11602F21F54A11604FF0205142
:101C2000F44A11604FF01051F34A11604FF0015126
:101C3000F24A11604FF00851F14A11604FF004511F
:101C4000F04A116023E0022821D10105E24A116027
:101C5000E249A839E24A1160EB49E34A11600021E8
:101C6000E24A11600B21E24A1160E849E14A116041
:101C7000E6491039E04A1160E549E04A1160E3495C
:101C80001839DF4A1160E249C91CDE4A1160704709
:101C900000207047704700B587B00121DD48FFF78D
:101CA0006CFC01214807FFF79BFC102001900320EA
:101CB0008DF8080000208DF80B0001A9D648FFF729
:101CC00017F8002003900490069003A9FEF7DDFCAE
:101CD00001210020FEF7F6FC07B000BD08B5BD48A5
:101CE0000068012848D10121BB480068FFF745FC86
:101CF0000021BB480068FEF791FEB9480068FEF776
:101D0000B1FDBA480068C5490860B7480068486036
:101D1000002088604020C8604FF6FE7008610020F7
:101D200048614FF4806088614000C86180000862AB
:101D3000002048624FF4003088620020C8620863C7
:101D400048638863A6480068FEF72EFE0122102132
:101D5000A3480068FEF7F2FEA5480068C0B28DF8FF
:101D6000000000208DF801008DF8020001208DF8A0
:101D700003006846FEF711FC96480068012806D16A
:101D80000122022197480C38FFF7D7FE15E0FFF734
:101D900082FF0122712193480C38FFF7DAFE3320CD
:101DA0008DF8000000208DF801008DF80200012060
:101DB0008DF803006846FEF7F0FB08BD10B588B04B
:101DC00004460121C803FFF70BFC86480C38FFF7D7
:101DD00011FD06940020ADF81200ADF81400ADF826
:101DE0001C004FF40070ADF81000ADF8160004A907
:101DF0007C480C38FFF742FD7648006802280ED177
:101E000001210007FFF7ECFB0020009001900390F8
:101E10006946FEF73AFC01210020FEF753FC08B0AA
:101E200010BD00BFFEE770B5044600254FF49610C4
:101E30007B49086007E07A490868411E784A1160CA
:101E400008B9FFF7EEFF4FF400317648FFF7D2F9FB
:101E50000028F0D101217348FFF7B3F84FF4805008
:101E60006F49086007E06E490868411E6C4A1160BE
:101E700008B9FFF7D6FF6C496A48FFF798F90028C0
:101E8000F1D0002294216748FFF7B3F84FF4805057
:101E90006349086007E062490868411E604A1160B2
:101EA00008B9FFF7BEFF61495E48FFF780F90028D7
:101EB000F1D021465B48FFF720F94FF48050584994
:101EC000086007E056490868411E554A116008B984
:101ED000FFF7A7FF4D491C395248FFF78BF900283F
:101EE000F0D001214F48FFF76CF84FF480504C4977
:101EF000086007E04A490868411E494A116008B96C
:101F0000FFF78FFF48494748FFF751F90028F1D004
:101F1000012294214348FFF76CF84FF48050404968
:101F2000086007E03E490868411E3D4A116008B953
:101F3000FFF777FF35491E393A48FFF75BF900286C
:101F4000F0D000213748FFF75CF836481830008899
:101F500001213448FFF741F84FF4805030490860C0
:101F600007E02F490868411E2D4A116008B9FFF7A4
:101F700058FF264920312B48FFF73CF90028F0D0C4
:101F80002848FFF7BCF805464FF480502449086004
:101F900007E023490868411E214A116008B9FFF78C
:101FA00040FF2048008810F4007FF2D101211D4835
:101FB000FFF727F81E491B48FFF734F9284670BD84
:101FC00070B504460D4600264FF49610144908607B
:101FD00038E000004400002048000020B8600240C3
:101FE0004C0000200C3C0040500000205400002019
:101FF000580000205C0000206000002064000020E9
:10200000680000206C0000200C74004020000010CC
:10201000010080100100200000000240900000201C
:102020003C00002000540040010003008200070033
:1020300000040010FD490868411EFC4A116008B9FF
:10204000FFF7EFFE4FF40031F948FFF7D3F800280F
:10205000F0D10121F648FEF7B4FF4FF48050F34968
:10206000086007E0F1490868411EF04A116008B9AC
:10207000FFF7D7FEEF49EE48FFF799F80028F1D0B7
:1020800000229421EA48FEF7B4FF4FF48050E7495C
:10209000086007E0E5490868411EE44A116008B994
:1020A000FFF7BFFEE449E248FFF781F80028F1D0CE
:1020B0002146DF48FFF721F84FF48050DB490860E4
:1020C00007E0DA490868411ED84A116008B9FFF7ED
:1020D000A8FED949891ED648FFF769F80028F0D034
:1020E0002946D348FFF709F84FF49610CF49086006
:1020F00007E0CE490868411ECC4A116008B9FFF7D5
:1021000090FECE49CA48FFF775F80028F1D00121AA
:10211000C748FEF762FF2046FFF785FEA84201D0C0
:10212000012000E000200646304670BD70B5044630
:102130000025E62C0EDDA4F1E700C1B22020FFF758
:102140003FFF0544A4F1E700C1B22120FFF738FFAB
:1021500005440DE004F11900C1B22020FFF730FF63
:10216000054404F11900C1B22120FFF729FF0544FD
:10217000284670BD1FB501214805FFF731FAAC486C
:10218000FEF76EFE0020ADF804004BF6FF70ADF8D0
:1021900006003320ADF808004FF48060ADF80A0067
:1021A0000001ADF80C00A64800900121A048FEF700
:1021B000FCFE69469E48FEF77CFE1FBD00E0401E07
:1021C0000028FCD1704710B5002210219D48FEF771
:1021D00007FE44F6FF70FFF7F1FF01221021994836
:1021E000FEF7FEFD10BD1CB501210820FFF7C5F963
:1021F0001020009001208DF8040002208DF80500C9
:1022000000208DF806008DF8070069468D48FEF71E
:102210006FFD01210720FFF7B0F94FF41070009017
:1022200002208DF804008DF8050001208DF80600CD
:1022300000208DF8070069468348FEF759FD042207
:1022400006218148FEF7D7FD042209217E48FEF7CA
:10225000D2FD4FF4A050009002208DF804008DF8BC
:10226000050000208DF806008DF8070069467748C4
:10227000FEF73EFD062204217548FEF7BCFD06224E
:102280000A217248FEF7B7FD7248006802280BD099
:102290001020009069466E48FEF72AFD06220C21A8
:1022A0006A48FEF7A8FD0FE001210846FFF765F92F
:1022B0001020009003208DF8040000208DF8070006
:1022C00069466348FEF714FD8020009002208DF8D7
:1022D00004008DF8050000208DF806008DF8070039
:1022E00069465A48FEF704FD062207215748FEF7C3
:1022F00082FD1CBD2DE9F04107460D46164600241F
:10230000FFF771FFFFF75FFFFFF734FF01210220A6
:10231000FFF756FE0444AF210420FFF751FE0444AA
:10232000AF204D49087081210520FFF749FE044484
:1023300004210620FFF744FE04442846FFF7F6FE7A
:1023400044480068022818D101210820FFF738FE10
:10235000044401210920FFF733FE0444C0210E206C
:10236000FFF72EFE044400211420FFF729FE044449
:1023700000211520FFF724FE04449E210220FFF7D0
:102380001FFE044400210A20FFF71AFE04443148CE
:102390000068022804D004210E20FFF711FE044437
:1023A00000212720FFF70CFE04440F211F20FFF718
:1023B00007FE04440A211A20FFF702FE04440A2102
:1023C0001B20FFF7FDFD04443046FFF7F7FC2046D5
:1023D000BDE8F0812DE9F04105460C461646642C17
:1023E00001DD642005E0C4EB0420642190FBF1F0E2
:1023F000C0B20746324639462846FFF77BFF10B188
:102400000120BDE8F081FFF769FC0020F9E710B575
:1024100000211248FFF7FEFA1048FFF7EBF9002100
:102420004FF40040FFF7DCF810BD00003C00002036
:102430000054004001000300820007000400001067
:10244000A0860100000C0240000402400008024087
:10245000000002404400002040000020003C0040FA
:1024600070471CB54FF4A050009000208DF8040078
:102470008DF805008DF806008DF807006946F748CD
:10248000FEF736FC102000906946F548FEF730FC58
:1024900000220421F248FEF7AEFC00220A21EF4898
:1024A000FEF7A9FC00220C21EC48FEF7A4FC8020DA
:1024B00000906946E948FEF71BFC06220721E74821
:1024C000FEF799FC1CBD10B50024FFF77CFE01212E
:1024D0000220FFF775FD0444FFF7C3FFFFF7C0FFBD
:1024E000FFF795FF204610BD08B5DE480068C0B272
:1024F0008DF8000000208DF801008DF802008DF8A5
:1025000003006846FEF749F80021D7480068FEF747
:1025100085FAD5480068FEF7A5F908BD10B5FFF7A4
:10252000E3FFFFF7D0FF002010BD70B504460D4655
:10253000CE48006801280ED1CD4884606808CC4997
:102540000861C9480068FEF72FFA0121C6480068F3
:10255000FEF764FA0CE0C648846005610146C24893
:102560000068FEF721FA0121BF480068FEF756FA1D
:10257000C048008810F4806F04D10121BD481C3888
:10258000FFF748FA70BD0020704770B505460C464D
:10259000B9480460FFF7F7FF4FF48030B0EB940FB9
:1025A00001D9A00801E04FF6FF7001462846FFF769
:1025B000BCFFB1480068B0F5803F02D2AE48006869
:1025C00001E04FF6FF70C0EB5400AC490860AA4828
:1025D0000068B0F5803F02D2A748006801E04FF6DE
:1025E000FF7005EB4000A6490860002070BD70B583
:1025F00004460D465CB9002202219E481C38FFF7B4
:102600009CFA002198480068FEF708FA14E00122BD
:10261000022198481C38FFF790FA0121924800687F
:10262000FEF7FCF99348008810F4806F04D1012173
:1026300090481C38FFF7EEF970BD70B505460024D0
:10264000012D05D1FF210420FFF7BAFC044405E069
:102650008C4801780420FFF7B3FC0444204670BD89
:1026600070B5054600244DB90120FFF7E6FF04448C
:1026700001210220FFF7A4FC04440EE00020FFF734
:10268000DCFF04447F4801780420FFF799FC0444F0
:102690009E210220FFF794FC0444204670BD10B533
:1026A00004462046FFF7DCFF08B1012010BD0021E1
:1026B0002046FFF79CFF0020F8E710B500216A488C
:1026C0000068FEF7ABF970480068704A1268104362
:1026D0006F4A126810436F4A126840EA020162486A
:1026E0000068FEF717FA002162481C38FFF792F9DC
:1026F00010BD70B5054600240120FFF79EFF022D96
:1027000005D19F210220FFF75BFC04440DE09F21CF
:102710000220FFF755FC044440F6FF70FFF74EFD22
:10272000002210215C48FEF75BFB204670BD10B50F
:1027300004462046FFF7DDFF08B1012010BDFFF77A
:10274000BCFF4D4800684D4908600020F6E770B5B1
:102750000446642C01DD642005E0C4EB0420642100
:1027600090FBF1F0C0B20546FFF7E0FC70BD10B57C
:1027700004462046FFF761FF10BD10B542480168CE
:1027800039480068FEF7A7F900285ED03B4800688A
:1027900000284AD000BF34480068FEF78CF90028B2
:1027A000F9D13948016830480068FEF7B3F9344878
:1027B00000682F49886031480068B0F5803F02D238
:1027C0002E48006801E04FF6FF702949086126484D
:1027D0000068FEF7E9F8012123480068FEF71EF9BA
:1027E00026480068B0F5803F02D22448006801E026
:1027F0004FF6FF702249096801EB4000204908604C
:102800001E480068B0F5803F02D21C48006801E015
:102810004FF6FF7019490968081A18490860012124
:1028200011480068FEF7FAF80FE000210E48006832
:10283000FEF7F4F8144801680B480068FEF76AF9DF
:1028400000210F480068FFF725FA10BD10B5FFF70B
:1028500094FF10BD10B5FFF790FF10BD00080240B7
:1028600000000240580000204C00002044000020DE
:10287000900000201C3C0040340000203800002064
:1028800070000020400000205C000020600000205C
:102890006400002068000020000C024010B50221F6
:1028A0000B48FFF76BF988B10A480068022806D187
:1028B000FFF7EEF9044621460420FDF751FFFFF72C
:1028C000E7F9044621460248FFF719F910BD000058
:1028D000003C004044000020064C074D06E0E06844
:1028E00040F0010394E8070098471034AC42F6D357
:1028F000FDF74EFCD4380008043900080000000041
:1029000002E008C8121F08C1002AFAD170477047B8
:10291000002001E001C1121F002AFBD1704710B551
:10292000002A06DA22F00042D21D22F0070310220C
:1029300003E0D21C22F003030C2213B19C188C423A
:1029400001D9012010BD024401448360C0E9002187
:10295000C91AD018884202D810600246F9E7002050
:10296000106010BD08480068C0010BD5074800681A
:10297000C00707D0054880380068002802DA0449FB
:102980000120087070470000FCED00E0800E00E0C0
:10299000860000204FF06042D36F002BFCD0C36A4A
:1029A000D367D36F002BFCD0C07840EA0120A2F897
:1029B0007C0070474FF06041CA6F002AFCD081F85C
:1029C0007C00704770B504000D4603D012B9207822
:1029D000012801D0802070BD204600F043FA28B1C4
:1029E0002946204600F02CF8002070BD812070BDE3
:1029F00010B504468089002821D0608904EB80004E
:102A0000006908606078022805D10021204600F0A6
:102A10007DFB00F06BFB04F10C0000BFD0E85F1FF2
:102A2000491EC0E8521F002AF8D16089401C80B2BC
:102A30006081E189884201D100206081042010BDBD
:102A400010B500F063FBBDE8104000F04FBB000084
:102A5000EFF305820AB182207047EFF31482144B22
:102A600012F0030206D0012A1BD0022A11D0032A39
:102A700019D113E0EFF3088282F309881A78D2079C
:102A80000AD0022282F31488BFF34F8FBFF36F8FF7
:102A900009E01A78D20706D10322F3E71A78D207A1
:102AA00001D0FF207047DFF80CC000DF7047000046
:102AB0008C380008193600082DE90E40EFF3058226
:102AC000B2B102004FF0800000D021B10090DDE9EA
:102AD000011203B000BD11780129F7D101A91046F8
:102AE000FFF786FF042801D00020EFE71020EDE774
:102AF000DFF804C000DFECE711370008DFF80CC096
:102B000000DFDFF80CC000DFFEE70000BD37000883
:102B1000D9370008DFF804C000DF7047113800081B
:102B2000094C4FF0FF3529462068FFF7C5FF0246E4
:102B30000846102AF7D1FFF7EDFF0028F3D0024630
:102B400008469047EFE70000200000204FEA000110
:102B500051E8000F28B1036841E80032002AF7D19C
:102B60007047BFF32F8F704710B568B161B10B315B
:102B700021F00302016844680B1A1B1B934205D223
:102B8000084609680029F5D1002010BD3CB1211884
:102B90000368C1E90032016001F1080010BD426024
:102BA000083010BD70B50C46002812D04FF6FF71EA
:102BB000084D884204D22A680146104600F0D2FA35
:102BC00028684470044800F0D3F8BDE8704000F075
:102BD0008BBB70BD78000020380100200F4810B575
:102BE0000D4942680E480B680088934204D00A6081
:102BF000CB88421E1A448A808A8882420AD10020E9
:102C00000860064800F0B4F80146BDE810400348EB
:102C100000F0D6BA10BD0000880000203801002066
:102C20008400002070B5194DE86800282CD0A88ACF
:102C3000401EA882002621E0A06838B1616841608A
:102C4000606810B1A16881606660A6600F48214687
:102C5000183800F0B5FAA08AA8826078042804D158
:102C60000B49E08A09880844A08201206070E0686E
:102C7000E860E06808B10561E6602661A88A00287E
:102C800002D1EC68002CD7D170BD000050010020AB
:102C90008400002070B504000FD00D4DA1780126EE
:102CA0002868827891420CD900F0A6FA286846700C
:102CB0002046BDE8704000F017BB064800F058F809
:102CC000F7E766702146BDE87040024800F078BA28
:102CD000780000203801002010B50446008B08431E
:102CE00020836278618B062A18D0052A19D1084200
:102CF00017D001EA0002628388432083204600F057
:102D00009BFA01206070628B0821204600F08CFA4B
:102D10002146BDE81040034800F052BA31EA0002F3
:102D2000EAD010BD38010020814202D342688A42B5
:102D300001D80120704750E8002F0A6040E80012D7
:102D4000002AF8D10020704768B161B1083900222B
:102D500002E00246006830B18842FAD12AB1006828
:102D60001060002070470120704700214160F8E7A3
:102D70000146406842684A600B780022022B05D069
:102D8000012B03D0032B01D04260704743680BB185
:102D90009960426082607047810700D000207047D0
:102DA00070B5044600201546207001226270A170A3
:102DB0006060A060E0602061A082E0822083608388
:102DC00084F82000608C18B90448FFF7BFFEA062A9
:102DD00029462046BDE8704000F01CB86001001094
:102DE00008B1082901D2012070470144091F0022BF
:102DF00001600A60426010467047000003480021ED
:102E0000016003490968C180704700008800002004
:102E10008438000810B5428C920803D10F4A12681A
:102E2000C2F38D02836A03EB8202530700D5121F9F
:102E3000403A4FF08073C2E90E1300234FEA0304B7
:102E400042F823405B1C0E2BFAD3C3691362426223
:102E5000C162806A0249016010BD0000803800082C
:102E6000A52E5AE2C1898089081A70470122027092
:102E70000022427082704260028142811039828158
:102E80008908C181704700002DE9F041044640786F
:102E900000270E464FF00108012855D004F10C051B
:102EA00002282BD0032818D0A089E189884262D259
:102EB000208904EB80000661D5E85F0F401CC5E85F
:102EC000510F0029F8D12089401C80B22081E1896E
:102ED000884200D12781BDE8F0810846FFF736FE21
:102EE0000600F8D02046FFF743FF0546606800B9AA
:102EF00067703146284600F091F931E02046FFF72F
:102F000037FF0646606800B967700021304600F060
:102F100085F92189F06904EB81010861D5E85F0F2B
:102F2000401CC5E8510F0029F8D12089401C80B20F
:102F30002081E189884200D1278186F801803046CE
:102F400000F07AF9314611E02046FFF711FF0546FF
:102F5000606800B9677032461021284600F064F9B5
:102F600085F80180284600F067F92946BDE8F04160
:102F7000034800F025B9BDE8F0410320FDF7F8BA99
:102F80003801002070B50446808915460026C8B374
:102F9000608904EB8000006908606089401C80B291
:102FA0006081E189884200D16681607802280AD078
:102FB00014F10C04D4E85F0F401EC4E8510F00293F
:102FC000F8D1002070BD2046FFF7D2FE05466068AC
:102FD00000B966700021284600F020F92189E869CF
:102FE00004EB810108612089401C80B22081E189C5
:102FF000884200D12681284600F01EF92846FFF7B6
:1030000049FEDEE7FFE73DB10A48626801682AB180
:10301000204600F0D5F807E0012070BD616000682F
:10302000C0E901640120607008212846FFF7BAFD5D
:10303000F2E7000078000020411C13D00B4A4FF645
:10304000FE7190420CD800EB4002C2EBC01208485F
:10305000036803EBC202521EB2FBF3F0884200D9B0
:10306000084670474FF6FF707047000000093D00AA
:103070009038000870B51A4801210068417000F0CE
:10308000BBF8184D6C7816E005EBC401486802786F
:10309000E2B1012A1FD000F0FBF8E878641C8442FA
:1030A00000D100240F48801CD0E84F1F491EC0E803
:1030B000421F002AF8D1A8780028E5D16C700A4890
:1030C000FFF756FEBDE8704000F00EB9896889B27E
:1030D000FFF702FEE1E78968FFF7D6FEDDE70000B3
:1030E00078000020D0070010380100200548017842
:1030F00011B101214170704703494FF080500860C1
:10310000704700008000002004ED00E0F0B4144B94
:103110009C1CDD784FEA030CD4E84F2FAA4202D161
:10312000BFF32F8F0EE0521CC4E8462F002EF3D1C0
:10313000DCE84F2F541CAC4200D10024CCE8464FB1
:10314000002EF5D1DC78944205D903EBC202C2E926
:103150000101F0BC7047F0BC0220FDF709BA000085
:10316000D0070010154A10B5D368FBB113469B8AEF
:1031700009E000BFD2F80CC0BCF1000F16D0BCF8BB
:103180001440624623448B42F4D3D468C460D060B8
:103190000261D0F80CC0BCF1000F01D0CCF81000D7
:1031A000591A8182908A401A908210BD0024C4600E
:1031B000D060C91A02619182848210BD5001002042
:1031C00010B502780023022A03D0012A01D0032A75
:1031D00000D1012391F802C000E01046426812B10C
:1031E00094786445F9D24A6041601BB102B19160A4
:1031F000886010BD0020FBE703494A684260002256
:1032000082604860704700003801002090F820106C
:10321000406A09B1603070472030704710B50C46E5
:10322000FFF7F4FF046010BD70B50C461546FFF7BC
:10323000EDFFC0E9004570BD10B5016900290ED051
:10324000C268CA60C36800223BB18B8A848A234467
:103250008B82C3681961C26000E08A82026110BD7E
:10326000816839B142684A604168002901D08068AC
:1032700088607047054906E04A68824202D140688A
:103280004860704711460029F6D170473801002088
:1032900010B5416881B1FFF76BFD0446FFF7CCFF25
:1032A0000120607001462046FFF7B8FF2146BDE8C7
:1032B00010400348FFF784BF4188491C418010BD7E
:1032C0003801002006480068D0E90910814203D384
:1032D00000680449884202D00120FDF749B97047CF
:1032E00078000020A52E5AE2074902224860427069
:1032F000064A1278002A05D006C98A4202D0C07850
:10330000FFF758BB704700007800002086000020BF
:103310002DE9F04104460D469046FFF723FB0020BF
:1033200006463849384B02E041F82060401C1A88B4
:103330009042F9D33548302201883548FFF7EFFA3B
:103340003448006880B240F0004233480168334896
:10335000FFF7E5FA32480822018832480068FFF793
:10336000DEFA314FFF20314AF8707E840021384662
:10337000FFF716FD2E480421017046602D480170AC
:10338000C66006618682786A2030FCF70BFF2A4807
:103390002B4907600220787028480670467009782B
:1033A000C170284801684FF0E02041618661072123
:1033B000016125480168254A1143016000682249DE
:1033C00000F07F40C0431439B0FA80F00968C0F1C2
:1033D0000800C1F30221814200DB481C1A49091F81
:1033E0000B686FF08072824063F317020A60FFF788
:1033F00005FD424629462046BDE8F041002300F085
:103400006DB80000540800107C3800089838000897
:1034100000000010803800089C380008600100108F
:10342000C038000818000020080100206D050008C1
:10343000380100205001002078000020D007001043
:10344000A43800088838000820ED00E00000FFFFE5
:103450000B4810B5006801214170FFF7CDFEFFF762
:10346000BDFB08490888401C0880FFF7DBFB00F023
:10347000DBF90548FFF77CFCBDE81040FFF734BFDF
:10348000780000208400002038010020002805D0AA
:10349000810702D10178002900D000207047000088
:1034A00030B50D4C0023226808E000BFB2F808C018
:1034B0008C4505D813461268A1EB0C01002AF5D102
:1034C00089B20260018112B11589691A11810BB1AB
:1034D000186030BD206030BD740000202DE9F0413F
:1034E000804616461F460D4611F0FF0F00D14D1CB9
:1034F0001648FFF72BFB040026D0280AA66260843A
:10350000E9B242462046E761FFF74AFC0125104830
:10351000104905E000EB850252F8042C22B16D1C25
:103520000A889542F6D9002500EB850040F8044C46
:103530000948E570007818B101212046FFF72AFA02
:103540002046FFF7A7FB2846BDE8F08100000010E9
:10355000540800107C380008860000202DE9F04156
:10356000244C234F244B22680026D17808B1814295
:1035700018D103EB8100567040F8046C1F48916A23
:10358000FFF7D2FB20688662397811B10021FFF77E
:1035900001FA1B482168FFF7C7FB00202660FFF7F0
:1035A00079FB1FE01749098888421ED803EB800584
:1035B00055F8044CCCB12046FFF752FE2046FFF7E9
:1035C0003BFE45F8046C0D48A16AFFF7ADFBA6620F
:1035D000387818B100212046FFF7DCF92146084869
:1035E000FFF7A2FB0020BDE8F081FF20FBE7000011
:1035F00086000020780000205408001060010010B0
:10360000000000107C38000802480068002800D044
:10361000C07870477800002070B504000D4608D0CF
:10362000206830B1B4F9040010F1030F01DB032866
:1036300001DD862070BD244E306840B1204600F088
:1036400085F8A0B100F0BAF800F0C6F837E01F48DE
:1036500040070CD11E4801681C48FFF7C1FB30B978
:10366000E16831B11948FFF77FFA020002D18520E5
:1036700070BD0022B4F90400E168001D40EA012198
:103680002068FFF745FE7068D8B1C078114901EB9A
:10369000800050F8040C3060416A0D62406A0E49A7
:1036A000416300210D4800F021F80D490860002118
:1036B0000C4800F04BF80C490860002030600020F6
:1036C00070BDFF2070BD00007800002020060010B3
:1036D000A038000854080010FD2A0008B838000877
:1036E00020000020A83800081C00002010B50400AD
:1036F00005D0216819B1606808B102780AB10020CC
:1037000010BD8900103189B2FFF7B0FB606810BDB1
:103710003EB504000D464FF0800012D021780129FB
:103720000FD12846FFF788FC82B201A92046FFF797
:1037300029FC012801D0102003E00DB1402000E059
:103740000020DDE9011203B030BD000070B50400B7
:103750000E462BD0206848B3B4F9040010F1030FD3
:1037600024DB032822DCE16829B11148FFF7FCF9CA
:10377000050015D000E00025B4F90400E168001D43
:1037800040EA012133462A462068FFF7A7FE40B1F0
:10379000084901EB8000084950F8040C426A516363
:1037A00070BD1DB129460248FFF7CEFA002070BD5A
:1037B0002006001054080010FD2A000810B5FFF77D
:1037C00023FF002804D0034901EB800050F8040CCB
:1037D00010BD00005408001070B5FFF757FE04003C
:1037E00003D0608C18B1A56A02E0802070BD00256E
:1037F000E078FFF7B3FEFF2806D01DB10348A16AA9
:10380000FFF7A2FA002070BD812070BD20060010D5
:1038100010B5FFF7C1FA20B101690A68C168104606
:1038200010BD0020014610BD2DE9F041114E346855
:10383000002C18D02089104F401E20814FF0010825
:103840000EE0254624683460002229463868FFF7D8
:10385000B9F86879012808D085F80480002C02D0D6
:1038600020890028EDD0BDE8F08169892846FFF75E
:1038700017FEF3E77400002020000020070000007E
:10388000C8000201050001003F9002000100000095
:10389000E8030000000000005C010000C00400001C
:1038A000B001000010000000212B00080200000001
:1038B00001000000C80000000400000070080010B3
:1038C000000000008B05000800000000010000005F
:1038D000C80000000439000800000020900000002B
:1038E00000290008043900080000001090080000BA
:1038F000102900089439000890000020D804000026
:1039000010290008007A030A0000000000000000EF
:10391000010203040607080900000000000000007F
:10392000000000000000000000000000010203048D
:103930000102030406070809FFFF0000FFFF000063
:1039400000C0120000000000010000000000200084
:10395000B86002400C3C0040000000002F00000056
:103960000000002800000024000040200000002289
:103970000000002100000000000000000000000026
:103980000000000000000000000000000000000037
:043990000000000033
:040000050800018965
:00000001FF
