:020000040800F2
:10000000B0040020150500081D0500081F050008A4
:100010002105000823050008250500080000000050
:1000200000000000000000000000000009020008BD
:100030002905000800000000AD0200080D030008BB
:100040002F0500082F0500082F0500082F050008C0
:100050002F0500082F0500082F0500082F050008B0
:100060002F0500082F0500082F0500082F050008A0
:100070002F0500082F0500082F0500082F05000890
:100080002F0500082F0500082F0500082F05000880
:100090002F0500082F0500082F0500082F05000870
:1000A0002F0500082F0500082F0500082F05000860
:1000B0002F0500082F0500082F0500082F05000850
:1000C0002F0500082F0500082F0500082F05000840
:1000D0002F0500082F0500082F0500082F05000830
:1000E0002F0500082F0500082F0500082F05000820
:1000F0002F0500082F0500082F0500082F05000810
:100100002F0500082F0500082F0500082F050008FF
:100110002F0500082F0500082F0500082F050008EF
:100120002F0500082F0500082F0500082F050008DF
:100130002F0500082F0500082F0500082F050008CF
:100140002F0500082F0500082F0500082F050008BF
:100150002F0500082F0500082F0500082F050008AF
:100160002F0500082F0500082F0500082F0500089F
:100170002F0500082F0500082F0500082F0500088F
:100180002F0500082F050008DFF814D000F0F4FD5B
:100190000021024800F0B8FEFEE70000B01D000894
:1001A000B004002080F309887047684680F309880E
:1001B00004480078C00714BF0220032080F314888D
:1001C00070470000781D0008DFF818C0EFF30583C2
:1001D0001B0618BF6047EFF31483DB0708BF6047B7
:1001E00000DF70471D100008DFF818C0EFF305832B
:1001F0001B0618BF6047EFF31483DB0708BF604797
:1002000000DF704701120008EFF30980816911F8DF
:10021000021C002933D190E80F1010B5E047BDE86B
:100220001040EFF3098C8CE807001D4B93E80600A3
:10023000914208BF704781B11EF0100F06BF2CED30
:10024000108A0120002081F820002CE9F00FC1F86D
:1002500024C00CB401F0A2FA0CBC1A60D2F824C07D
:10026000BCE8F00F92F8200000281ABFBCEC108AFE
:100270006FF0120E6FF0020E8CF30988704710B504
:10028000084A1268914209D8074C54F8214090E876
:100290000F10A047EFF3098C8CE80F0010BD000091
:1002A000380000209C0D00089C0D000810B501F0DE
:1002B0004DF9BDE81040174B93E80600914208BF86
:1002C0007047EFF3098C1EF0100F06BF2CED108A5B
:1002D0000120002081F820002CE9F00FC1F824C093
:1002E0000CB401F05BFA0CBC1A60D2F824C0BCE874
:1002F000F00F92F8200000281ABFBCEC108A6FF0B3
:10030000120E6FF0020E8CF30988704710B501F0E1
:100310000BFBCEE73800002000210020724A126853
:1003200042F48032704B1A6000BF6F4A126802F4C8
:100330000030491C10B9B1F5A06FF6D16A4A1268B5
:1003400012F4003F01D0012000E00020012845D137
:10035000654A4032126842F08052634B40331A6063
:10036000624A126842F48042604B1A605E4A083268
:1003700012685D4B08331A601A46126842F4004254
:100380001A601A46126842F4A0521A60584A1B1F9B
:100390001A601A1F126842F080721B1F1A6000BF99
:1003A000514A126812F0007FFAD040F20562514BB8
:1003B0001A604D4A0832126822F003024A4B083391
:1003C0001A601A46126842F002021A6000BF464ADA
:1003D0000832126802F00C02082AF8D1704710B5F2
:1003E0004548006840F47000434908603E48006892
:1003F00040F001003C49086000203B49083108609A
:10040000394800683D490840374908603C48091DA3
:100410000860081F006820F48020091F0860002081
:1004200031490C310860FFF777FF4FF00060324927
:100430008039086010BD30B50020002202238446B8
:100440000221294C0834246804F00C0020B104284F
:1004500006D0082836D107E02A4C2B4D2C6035E019
:100460002A4C294D2C6031E01F4C241D2468C4F314
:10047000805C1D4C241D246804F03F01BCF1000F7A
:100480000AD0224CB4FBF1F4174D2D1D2D68C5F395
:10049000881504FB05F209E01A4CB4FBF1F4124D87
:1004A0002D1D2D68C5F3881504FB05F20E4C241D87
:1004B0002468C4F30144641C6300B2FBF3F4124DDE
:1004C0002C6003E00F4C104D2C6000BF00BF064CA9
:1004D00008342468C4F303140D4D285D0A4C2468C5
:1004E000C440094D2C6030BD00380240007000400F
:1004F00008544007003C024088ED00E0FFFFF6FE94
:10050000103000240024F4000000002000127A00C3
:10051000040000200648804706480047FEE7FEE743
:10052000FEE7FEE7FEE7FEE7FEE7FEE7FEE7FEE7A3
:10053000DF0300088901000800BFFEE700BFFEE7F7
:100540001CB50121082000F0DAFA4FF48050009029
:1005500001208DF8040000208DF8060003208DF89E
:10056000050000208DF807006946104800F090F85B
:1005700000210F4800F01EFD03E04FF0FF3000F0B7
:10058000B7FCFAE711E04FF47A7000F0B1FC4FF4D9
:1005900080500649183108804FF47A7000F0A8FCAA
:1005A0004FF4805001491A310880ECE7000C0240FA
:1005B000C01D000810B504468848844208D10121B6
:1005C000084600F0F1FA0021012000F0EDFA5EE0AB
:1005D0008348844208D10121022000F0E5FA00217D
:1005E000022000F0E1FA52E07E48844208D1012165
:1005F000042000F0D9FA0021042000F0D5FA46E0EA
:100600007948844208D10121082000F0CDFA002168
:10061000082000F0C9FA3AE07448844208D1012168
:10062000102000F0C1FA0021102000F0BDFA2EE0E9
:100630006F48844208D10121202000F0B5FA002142
:10064000202000F0B1FA22E06A48844208D101215A
:10065000402000F0A9FA0021402000F0A5FA16E0A1
:100660006548844208D10121802000F09DFA0021D4
:10067000802000F099FA0AE06048844207D1012105
:10068000801500F091FA0021A01500F08DFA10BD40
:1006900070B50A46002100238C4600BF3DE00124CE
:1006A00004FA01F3146804EA030C9C4534D104688D
:1006B0004E000325B540AC43046014794D00AC40B6
:1006C00005682C4304601479012C02D01479022CA3
:1006D00016D184684E000325B540AC43846054793C
:1006E0004D00AC4085682C438460446801258D40F2
:1006F000AC434460446895798D40ADB22C4344606E
:10070000C4684E000325B540AC43C460D4794D00A5
:10071000AC40C5682C43C460491C1029BFD370BDD0
:100720004FF6FF7101600021017141718171C1714A
:1007300070474FF480320A43C261C161C261C2692D
:10074000C26970470246002013690B4201D00120A4
:1007500000E0002070470146086980B270470246F9
:10076000002053690B4201D0012000E000207047B7
:100770000146486980B270470183704741837047E2
:100780000AB1018300E041837047416170474269CB
:100790004A404261704770B500239C464C07E40E06
:1007A00002FA04F3CD1000F1200454F825404D075F
:1007B000EE0E0F25B540AC43CE1000F1200545F8F4
:1007C0002640CD1000F1200454F8254044EA030CE3
:1007D000CD1000F1200444F825C070BD0000024097
:1007E0000004024000080240000C024000100240D9
:1007F0000014024000180240001C02400020024089
:10080000FA48006840F00100F84908600020F74904
:1008100008310860F5480068F5490840F349086068
:10082000F448091D0860081F006820F48020091F93
:1008300008600020ED490C31086070470021EB4A48
:10084000921C117011460870704710B501460022C5
:10085000002300204A11012A02D1E44C236808E059
:10086000022A03D1E14C7034236802E0DF4C743477
:10087000236801F01F02012494401C4201D0012092
:1008800000E0002010BD70B500240025002600BF48
:100890003120FFF7DAFF0646641CB4F5A06F01D0E3
:1008A000002EF5D03120FFF7D0FF08B1012500E080
:1008B0000025284670BD01460020CC4A106820F073
:1008C000F80040EAC10010607047CB4908607047EB
:1008D0000021C64A703211701170012802D004281C
:1008E0000AD104E00121C14A7032117005E00521EE
:1008F000BE4A7032117000E000BF00BF7047BF49B0
:100900000860704730B5DDF80CC041EA821401255B
:10091000C5EB530544EA0544044344EA0C64B34D73
:100920002D1D2C6030BDB44908667047820142EA33
:100930000172AE4B84331A607047AF4988667047C6
:10094000AD49C864704702460020A84B08331868B8
:1009500020F0EC6042EA01031843A44B083318600E
:10096000704702460020A14B0833186820F07840F9
:1009700042EA010318439D4B083318607047014653
:1009800000209A4A0832106820F0030008431060E3
:10099000704796480830006800F00C007047014628
:1009A0000020924A0832106820F0F00008431060DE
:1009B0007047014600208D4A0832106820F4E0504C
:1009C00008431060704701460020884A08321068CA
:1009D00020F4604040EAC10010607047F0B500218B
:1009E0000022002402258C460223804E08363668F9
:1009F00006F00C0121B1042905D0082933D105E006
:100A00007F4E066032E07F4E06602FE0774E361D47
:100A10003668C6F3805C754E361D366806F03F03B7
:100A2000BCF1000F0AD0774EB6FBF3F66F4F3F1DB7
:100A30003F68C7F3881706FB07F409E0704EB6FB62
:100A4000F3F66A4F3F1D3F68C7F3881706FB07F4AC
:100A5000664E361D3668C6F30146761C7500B4FB3B
:100A6000F5F6066002E0664E066000BF00BF5F4E0E
:100A70000836366806F0F0010909634E725C0668B4
:100A8000D6404660594E0836366806F4E051890A69
:100A90005D4E725C4668D6408660544E08363668B5
:100AA00006F46041490B584E725C4668D640C660F9
:100AB000F0BD002100F44072B2F5407F0AD14B4AEC
:100AC0000832116821F4F811504A02401143474A94
:100AD00008321160454A70321268C0F30B031A43A2
:100AE000424B70331A60704744494439086070477C
:100AF000424940390860704745490860704739B13C
:100B00003A4A303212680243384B30331A6006E0FA
:100B1000364A303212688243344B30331A607047A1
:100B200039B1324A343212680243304B34331A60DE
:100B300006E02E4A3432126882432C4B34331A605A
:100B4000704739B1294A383212680243274B38338B
:100B50001A6006E0254A383212688243234B383344
:100B60001A60704739B1214A4032126802431F4B64
:100B700040331A6006E01D4A4032126882431B4B24
:100B800040331A60704739B1184A44321268024340
:100B9000164B44331A6006E0144A4432126882430A
:100BA000124B44331A60704739B1104A1032126840
:100BB00002430E4B10331A6006E00C4A10321268E2
:100BC00082430A4B10331A60704739B1074A143216
:100BD00012680243054B14331A6006E0034A1432CC
:100BE00012688243014B14331A6070470038024088
:100BF000FFFFF6FE1030002400004742800E4742FF
:100C00000024F40000127A0024000020FFFCFF0FF3
:100C10005C01474229B1574A12680243554B1A609A
:100C200004E0544A12688243524B1A60704739B14B
:100C3000504A0832126802434E4B08331A6006E0ED
:100C40004C4A0832126882434A4B08331A60704794
:100C500039B1484A0C3212680243464B0C331A60D1
:100C600006E0444A0C3212688243424B0C331A604D
:100C7000704739B13F4A3832126802433D4B38332E
:100C80001A6006E03B4A383212688243394B3833E7
:100C90001A60704739B1374A3C3212680243354B0B
:100CA0003C331A6006E0334A3C3212688243314BCF
:100CB0003C331A60704739B12E4A40321268024301
:100CC0002C4B40331A6006E02A4A403212688243B5
:100CD000284B40331A60704739B1264A48321268AF
:100CE0000243244B48331A6006E0224A4832126815
:100CF0008243204B48331A60704739B11D4A4C3249
:100D0000126802431B4B4C331A6006E0194A4C32FE
:100D100012688243174B4C331A60704739B1154A39
:100D20000B3A12780243134B0B3B1A7008E0114A3E
:100D30000B3A1278C343DBB21A400E4B0B3B1A70CE
:100D400070470C485C30006840F0807009495C31A5
:100D50000860704701460020064A0C3A12680A42B1
:100D600001D0012000E00020704702490A390870D4
:100D70007047000018380240064C074D06E0E06856
:100D800040F0010394E8070098471034AC42F6D3D2
:100D9000FFF7FEF9D01D0008001E0008000000004B
:100DA00002E008C8121F08C1002AFAD17047704734
:100DB000002001E001C1121F002AFBD1704710B5CD
:100DC000002A06DA22F00042D21D22F00703102288
:100DD00003E0D21C22F003030C2213B19C188C42B6
:100DE00001D9012010BD024401448360C0E9002103
:100DF000C91AD018884202D810600246F9E70020CC
:100E0000106010BD08480068C0010BD50748006895
:100E1000C00707D0054880380068002802DA044976
:100E20000120087070470000FCED00E0800E00E03B
:100E3000460000204FF06042D36F002BFCD0C36A05
:100E4000D367D36F002BFCD0C07840EA0120A2F812
:100E50007C0070474FF06041CA6F002AFCD081F8D7
:100E60007C00704770B504000D4603D012B920789D
:100E7000012801D0802070BD204600F05FFA28B123
:100E80002946204600F02CF8002070BD812070BD5E
:100E900010B504468089002821D0608904EB8000C9
:100EA000006908606078022805D10021204600F022
:100EB00099FB00F087FB04F10C0000BFD0E85F1F36
:100EC000491EC0E8521F002AF8D16089401C80B238
:100ED0006081E189884201D100206081042010BD39
:100EE00010B500F07FFBBDE8104000F06BBB0000C8
:100EF000EFF3058109B182207047DFF808C000DFF9
:100F000070470000F11A0008EFF305820AB1822051
:100F10007047EFF31482144B12F0030206D0012A3B
:100F20001BD0022A11D0032A19D113E0EFF3088253
:100F300082F309881A78D2070AD0022282F3148831
:100F4000BFF34F8FBFF36F8F09E01A78D20706D136
:100F50000322F3E71A78D20701D0FF207047DFF8A9
:100F60000CC000DF70470000781D0008051B00085A
:100F70002DE90E40EFF30582B2B102004FF0800080
:100F800000D021B10090DDE9011203B000BD11785D
:100F90000129F7D101A91046FFF77AFF042801D0F3
:100FA0000020EFE71020EDE7DFF804C000DFECE7FA
:100FB000FD1B0008EFF305820AB100207047DFF83F
:100FC00008C000DF70470000391C0008DFF80CC0C3
:100FD00000DFDFF80CC000DFFEE70000A91C0008FE
:100FE000C51C0008DFF804C000DF7047FD1C0008C6
:100FF000094C4FF0FF3529462068FFF7B9FF02463C
:101000000846102AF7D1FFF7EDFF0028F3D002467B
:1010100008469047EFE70000200000204FEA00015B
:1010200051E8000F28B1036841E80032002AF7D1E7
:101030007047BFF32F8F704710B568B161B10B31A6
:1010400021F00302016844680B1A1B1B934205D26E
:10105000084609680029F5D1002010BD3CB12118CF
:101060000368C1E90032016001F1080010BD42606F
:10107000083010BD70B50C46002812D04FF6FF7135
:10108000084D884204D22A680146104600F0D6FA7C
:1010900028684470044800F0D7F8BDE8704000F0BC
:1010A0008FBB70BD38000020800000200F4810B5B5
:1010B0000D4942680E480B680088934204D00A60CC
:1010C000CB88421E1A448A808A8882420AD1002034
:1010D0000860064800F0B8F80146BDE81040034833
:1010E00000F0DABA10BD00004800002080000020A7
:1010F0004400002070B5194DE86800282CD0A88A5B
:10110000401EA882002621E0A06838B161684160D5
:10111000606810B1A16881606660A6600F482146D2
:10112000183800F0B9FAA08AA8826078042804D19F
:101130000B49E08A09880844A08201206070E068B9
:10114000E860E06808B10561E6602661A88A0028C9
:1011500002D1EC68002CD7D170BD000098000020AF
:101160004400002070B504000FD00D4DA178012679
:101170002868827891420CD900F0AAFA2868467053
:101180002046BDE8704000F01BBB064800F05CF84C
:10119000F7E766702146BDE87040024800F07CBA6F
:1011A00038000020800000200321FFF763BF00000B
:1011B00010B50446008B084320836278618B062AB1
:1011C00018D0052A19D1084217D001EA000262831B
:1011D00088432083204600F09BFA01206070628BD8
:1011E0000821204600F08CFA2146BDE81040034853
:1011F00000F052BA31EA0002EAD010BD80000020AF
:10120000814202D342688A4201D80120704750E8E7
:10121000002F0A6040E80012002AF8D10020704731
:1012200068B161B10839002202E00246006830B1BD
:101230008842FAD12AB1006810600020704701206E
:10124000704700214160F8E70146406842684A6003
:101250000B780022022B05D0012B03D0032B01D0E9
:101260004260704743680BB199604260826070478A
:10127000810700D00020704770B504460020154655
:10128000207001226270A1706060A060E060206147
:10129000A082E0822083608384F82000608C18B9EB
:1012A0000448FFF7BBFEA06229462046BDE8704017
:1012B00000F01CB86001001008B1082901D201201B
:1012C00070470144091F002201600A604260104615
:1012D0007047000003480021016003490968C1808C
:1012E0007047000048000020701D000810B5428CB7
:1012F000920803D10F4A1268C2F38D02836A03EB8E
:101300008202530700D5121F403A4FF08073C2E9A2
:101310000E1300234FEA030442F823405B1C0E2BFC
:10132000FAD3C36913624262C162806A02490160F2
:1013300010BD00006C1D0008A52E5AE2C1898089ED
:10134000081A7047012202700022427082704260C7
:1013500002814281103982818908C1817047000071
:101360002DE9F0410446407800270E464FF0010871
:10137000012855D004F10C0502282BD0032818D0E1
:10138000A089E189884262D2208904EB800006614D
:10139000D5E85F0F401CC5E8510F0029F8D120891E
:1013A000401C80B22081E189884200D12781BDE8BC
:1013B000F0810846FFF732FE0600F8D02046FFF71E
:1013C00043FF0546606800B967703146284600F063
:1013D00091F931E02046FFF737FF0646606800B913
:1013E00067700021304600F085F92189F06904EB2F
:1013F00081010861D5E85F0F401CC5E8510F002945
:10140000F8D12089401C80B22081E189884200D136
:10141000278186F80180304600F07AF9314611E0E4
:101420002046FFF711FF0546606800B96770324635
:101430001021284600F064F985F80180284600F064
:1014400067F92946BDE8F041034800F025B9BDE839
:10145000F0410320FFF772B88000002070B5044609
:10146000808915460026C8B3608904EB80000069B6
:1014700008606089401C80B26081E189884200D1A7
:101480006681607802280AD014F10C04D4E85F0F5A
:10149000401EC4E8510F0029F8D1002070BD20463D
:1014A000FFF7D2FE0546606800B966700021284645
:1014B00000F020F92189E86904EB810108612089A5
:1014C000401C80B22081E189884200D126812846D3
:1014D00000F01EF92846FFF745FEDEE7FFE73DB1C5
:1014E0000A48626801682AB1204600F0D5F807E092
:1014F000012070BD61600068C0E901640120607076
:1015000008212846FFF7B6FDF2E70000380000206A
:10151000411C13D00B4A4FF6FE7190420CD800EBE1
:101520004002C2EBC0120848036803EBC202521E1D
:10153000B2FBF3F0884200D9084670474FF6FF70BF
:101540007047000000093D007C1D000870B51A4876
:1015500001210068417000F0BBF8184D6C7816E06E
:1015600005EBC40148680278E2B1012A1FD000F0FF
:10157000FBF8E878641C844200D100240F48801CEA
:10158000D0E84F1F491EC0E8421F002AF8D1A878B2
:101590000028E5D16C700A48FFF756FEBDE87040A0
:1015A00000F00EB9896889B2FFF702FEE1E78968A9
:1015B000FFF7D6FEDDE7000038000020D00700105E
:1015C000800000200548017811B101214170704769
:1015D00003494FF080500860704700004000002031
:1015E00004ED00E0F0B4144B9C1CDD784FEA030CD2
:1015F000D4E84F2FAA4202D1BFF32F8F0EE0521C26
:10160000C4E8462F002EF3D1DCE84F2F541CAC4227
:1016100000D10024CCE8464F002EF5D1DC7894426E
:1016200005D903EBC202C2E90101F0BC7047F0BC6E
:101630000220FEF783BF0000D0070010154A10B546
:10164000D368FBB113469B8A09E000BFD2F80CC0F7
:10165000BCF1000F16D0BCF81440624623448B4204
:10166000F4D3D468C460D0600261D0F80CC0BCF17F
:10167000000F01D0CCF81000591A8182908A401ACC
:10168000908210BD0024C460D060C91A02619182AA
:10169000848210BD9800002010B502780023022A31
:1016A00003D0012A01D0032A00D1012391F802C0FE
:1016B00000E01046426812B194786445F9D24A605D
:1016C00041601BB102B19160886010BD0020FBE752
:1016D00003494A6842600022826048607047000007
:1016E0008000002090F82010406A09B160307047F7
:1016F0002030704710B50C46FFF7F4FF046010BDB2
:1017000070B50C461546FFF7EDFFC0E9004570BD0A
:1017100010B5016900290ED0C268CA60C3680022F2
:101720003BB18B8A848A23448B82C3681961C2606F
:1017300000E08A82026110BD816839B142684A6066
:101740004168002901D0806888607047054906E03B
:101750004A68824202D140684860704711460029B9
:10176000F6D170478000002010B5416881B1FFF7C5
:101770006BFD0446FFF7CCFF012060700146204658
:10178000FFF7B8FF2146BDE810400348FFF784BFCC
:101790004188491C418010BD800000200648006837
:1017A000D0E90910814203D300680449884202D07D
:1017B0000120FEF7C3BE704738000020A52E5AE274
:1017C0000749022248604270064A1278002A05D072
:1017D00006C98A4202D0C078FFF73CBB70470000C0
:1017E00038000020460000202DE9F04104460D4657
:1017F0009046FFF707FB002006463849384B02E0C9
:1018000041F82060401C1A889042F9D335483022B4
:1018100001883548FFF7D3FA3448006880B240F0B9
:101820000042334801683348FFF7C9FA32480822BA
:10183000018832480068FFF7C2FA314FFF20314A71
:10184000F8707E8400213846FFF716FD2E480421EB
:10185000017046602D480170C66006618682786A14
:101860002030FEF79FFC2A482B4907600220787041
:101870002848067046700978C170284801684FF002
:10188000E020416186610721016125480168254A00
:10189000114301600068224900F07F40C0431439C1
:1018A000B0FA80F00968C0F10800C1F3022181425A
:1018B00000DB481C1A49091F0B686FF080728240D8
:1018C00063F317020A60FFF705FD424629462046EA
:1018D000BDE8F041002300F06DB80000540800108E
:1018E000681D0008841D0008000000106C1D000821
:1018F000881D000860010010AC1D000818000020C1
:1019000050000020390500088000002098000020C9
:1019100038000020D0070010901D0008741D00083A
:1019200020ED00E00000FFFF0B4810B5006801212A
:101930004170FFF7CDFEFFF7B9FB08490888401C4E
:101940000880FFF7D7FB00F0E5F90548FFF77CFCBE
:10195000BDE81040FFF734BF3800002044000020ED
:1019600080000020002805D0810702D101780029DD
:1019700000D000207047000030B50D4C00232268D5
:1019800008E000BFB2F808C08C4505D813461268BD
:10199000A1EB0C01002AF5D189B20260018112B1DC
:1019A0001589691A11810BB1186030BD206030BDF6
:1019B000340000202DE9F041804616461F460D46B2
:1019C00011F0FF0F00D14D1C1648FFF727FB040054
:1019D00026D0280AA6626084E9B242462046E76122
:1019E000FFF74AFC01251048104905E000EB85028D
:1019F00052F8042C22B16D1C0A889542F6D90025B4
:101A000000EB850040F8044C0948E570007818B1F7
:101A100001212046FFF70EFA2046FFF7A3FB2846D8
:101A2000BDE8F0810000001054080010681D000897
:101A3000460000202DE9F041244C234F244B22681E
:101A40000026D17808B1814218D103EB810056708D
:101A500040F8046C1F48916AFFF7D2FB2068866249
:101A6000397811B10021FFF7E5F91B482168FFF72C
:101A7000C7FB00202660FFF775FB1FE017490988A8
:101A800088421ED803EB800555F8044CCCB12046A3
:101A9000FFF752FE2046FFF73BFE45F8046C0D4869
:101AA000A16AFFF7ADFBA662387818B10021204685
:101AB000FFF7C0F921460848FFF7A2FB0020BDE868
:101AC000F081FF20FBE700004600002038000020E6
:101AD000540800106001001000000010681D00088C
:101AE00002480068002800D0C07870473800002005
:101AF00010B5002805D0FFF70BFD80B2FFF754FBAF
:101B0000402010BD70B504000D4608D0206830B1EB
:101B1000B4F9040010F1030F01DB032801DD862076
:101B200070BD244E306840B1204600F085F8A0B169
:101B300000F0BAF800F0C6F837E01F4840070CD1B3
:101B40001E4801681C48FFF7B7FB30B9E16831B1A6
:101B50001948FFF771FA020002D1852070BD0022FA
:101B6000B4F90400E168001D40EA01212068FFF794
:101B70003BFE7068D8B1C078114901EB800050F885
:101B8000040C3060416A0D62406A0E4941630021D5
:101B90000D4800F021F80D49086000210C4800F0C4
:101BA0004BF80C49086000203060002070BDFF2019
:101BB00070BD000038000020200600108C1D0008B9
:101BC00054080010CD0F0008A41D000820000020BC
:101BD000941D00081C00002010B5040005D02168E9
:101BE00019B1606808B102780AB1002010BD8900FF
:101BF000103189B2FFF7A6FB606810BD3EB5040046
:101C00000D464FF0800012D0217801290FD12846CF
:101C1000FFF77EFC82B201A92046FFF71FFC0128D6
:101C200001D0102003E00DB1402000E00020DDE9EC
:101C3000011203B030BD000070B504000E462BD079
:101C4000206848B3B4F9040010F1030F24DB032823
:101C500022DCE16829B11148FFF7EEF9050015D043
:101C600000E00025B4F90400E168001D40EA01210C
:101C700033462A462068FFF79DFE40B1084901EB34
:101C80008000084950F8040C426A516370BD1DB1D0
:101C900029460248FFF7C4FA002070BD2006001054
:101CA00054080010CD0F000810B5FFF719FF0028E9
:101CB00004D0034901EB800050F8040C10BD000073
:101CC0005408001070B5FFF74DFE040003D0608C7F
:101CD00018B1A56A02E0802070BD0025E078FFF70A
:101CE000A9FEFF2806D01DB10348A16AFFF798FAA4
:101CF000002070BD812070BD2006001010B5FFF7D8
:101D0000B7FA20B101690A68C168104610BD002009
:101D1000014610BD2DE9F041114E3468002C18D059
:101D20002089104F401E20814FF001080EE025460B
:101D300024683460002229463868FFF793F86879F0
:101D4000012808D085F80480002C02D020890028C2
:101D5000EDD0BDE8F08169892846FFF70DFEF3E775
:101D6000340000202000002007000000C80002010D
:101D7000050001003F90020001000000E8030000A0
:101D8000000000005C010000C0040000B001000081
:101D900010000000F10F0008020000000100000028
:101DA000C8000000040000007008001000000000DF
:101DB000410500080000000001000000C80000000C
:101DC0008505000800000000010000000000000080
:101DD000001E00080000002050000000A00D0008B8
:101DE000001E00080000001090080000B00D000860
:101DF000501E00085000002060040000B00D0008D4
:101E0000007A030A00000000000000000102030441
:101E100006070809000000000000000000000000A4
:101E2000000000000000000001020304010203049E
:101E30000607080900000000000000000000000084
:101E40000000000000000000000000000000000092
:040000050800018965
:00000001FF
